:10000000703100205D430000E3C80000154300008C
:100010001543000015430000154300001543000080
:100020000000000000000000000000009534000007
:1000300015430000000000003934000015430000A3
:100040002535000025350000253500002535000048
:100050002535000025350000253500002535000038
:100060002535000025350000253500002535000028
:100070002535000025350000253500002535000018
:100080002535000025350000253500002535000008
:1000900025350000253500002535000025350000F8
:1000A00025350000253500002535000025350000E8
:1000B00025350000253500002535000025350000D8
:1000C00025350000253500002535000025350000C8
:1000D00025350000253500002535000025350000B8
:1000E00025350000253500002535000025350000A8
:1000F0002535000025350000253500002535000098
:100100002535000025350000253500002535000087
:100110002535000025350000253500002535000077
:100120002535000025350000253500002535000067
:100130002535000025350000253500002535000057
:100140002535000025350000253500002535000047
:040150002535000051
:1001540053B94AB9002908BF00281CBF4FF0FF312A
:100164004FF0FF3000F00CB8ADF1080C6DE904CE8F
:1001740000F008F8DDF804E0DDE9022304B070477C
:10018400704700BF2DE9F04786468C460846089E16
:10019400154674461946002B40F0C1808542B2FAD8
:1001A40082F245D94AB1C2F1200300FA02FC95401B
:1001B40094402EFA03F343EA0C0C4FEA154EA8B20E
:1001C400230CBCFBFEF80EFB18CC08FB00F943EA39
:1001D4000C43994528D9EB1808F1FF3704D2994507
:1001E40002D9A8F102072B44A3EB0903A4B2B3FB81
:1001F400FEFC0EFB1C330CFB00F044EA0344A0425B
:1002040014D92C190CF1FF3304D2A04202D9ACF159
:1002140002032C44241A43EA07401EB1D4400023AD
:1002240034607360BDE8F0874746DDE76346F1E775
:1002340092BB431B01214FEA154EAFB2200CB3FB16
:10024400FEFC0EFB1C330CFB07F840EA0343984505
:1002540061D9EB180CF1FF3004D2984502D9ACF106
:1002640002002B44A3EB0803A4B2B3FBFEFC0EFB79
:100274001C330CFB07F744EA0344A7424DD92C195D
:100284000CF1FF3304D2A74202D9ACF102032C448F
:10029400E41B43EA0040C0E7C2F1200395409440C8
:1002A40020FA03F12EFA03F34FEA154E9040AFB251
:1002B4000343B1FBFEFC0EFB1C10190C0CFB07F8EE
:1002C40041EA0041884522D969180CF1FF3004D273
:1002D400884502D9ACF102002944A1EB08019BB284
:1002E400B1FBFEFC0EFB1C110CFB07F743EA0143B8
:1002F4009F420ED9EB180CF1FF3104D29F4202D970
:10030400ACF102012B44DB1B41EA004193E7604658
:10031400E3E76146F7E76046A4E76346B8E783424C
:1003240006D916B9002108467CE7C6E900E0F9E7DA
:10033400B3FA83F78FB9834201D3724508D8BEEB71
:10034400020460EB030301209C461EB9002169E707
:100354003846FAE7C6E9004CF8E7C7F1200CBB4081
:100364000EFA07F522FA0CF42EFA0CF1BA401C43EB
:1003740020FA0CF3B8404FEA144901431FFA84FEF3
:10038400B3FBF9F809FB18300B0C08FB0EFA43EA2F
:1003940000439A4540D9E31808F1FF3004D29A4546
:1003A40002D9A8F102002344A3EB0A0389B2B3FBE8
:1003B400F9F809FB183308FB0EFE41EA03418E45A8
:1003C4002CD9611808F1FF3304D28E4502D9A8F163
:1003D4000203214443EA0040A1EB0E01A0FB029872
:1003E4004145CE46434602D306D14D4504D2013899
:1003F400B9EB020E68EB0403002EA7D0B5EB0E0296
:1004040061EB030101FA0CFC22FA07F3F9404CEA10
:100414000303C6E9003199E74046C5E74346D9E7F7
:1004240008B50A46014603480CF04BFB024809F0A4
:1004340093FA08BDD00D0020DC02002008B5024864
:1004440009F08AFA08BD00BFDC0200202DE9F04360
:100454009DB000AFBD4802F05FF8B0F1000802DAC9
:1004640018F1780F3ED1BA4A07F10801B74802F0F3
:10047400B7F8B0F1000858DB4FF0FF324FF0FF330C
:10048400B44809F08DFAB44BFB6302233B7100239B
:100494007B71BB71FB717A68BA63194663F300011F
:1004A40063F3410163F3820163F3C501032262F341
:1004B4008811082262F3522163F3DE4163F3DF7192
:1004C40007F13802A5480BF028FEDFF89482A5490D
:1004D40040460CF0A1FA40460CF0C2FA013048F84C
:1004E400040CB5E0A04B7B6202233B7100237B71BB
:1004F400BB71FB717A683A62194663F3000163F3D6
:10050400410163F3820163F3C501032262F388119D
:10051400082262F3522163F3DE4163F3DF7107F1D2
:1005240020028E480BF0F9FD21E0904BFB6602237C
:100534003B7100237B71BB71FB717A68BA66194603
:1005440063F3000163F3410163F3820163F3C501C3
:10055400032262F38811082262F3522163F3DE411D
:1005640063F3DF7107F168027C480BF0D6FD404667
:100574007437BD46BDE8F0836FF0004078E0014673
:10058400042803DDDFF8E8C1C3F814C04FF0020CFF
:1005940087F800C0082901DD7149996103F11C0144
:1005A4004FF0000CBCF1000F66D10CF1700EBE448C
:1005B4001EF870EC01F801EB0CF1010CF2E76FF09E
:1005C4001B0142B10320387100207871B8710120F9
:1005D400F871786818616FF300046FF341046FF3E6
:1005E40082046FF3C504032363F38814C1F3090180
:1005F40061F352246FF3DE446FF3DF74002321466A
:1006040056480BF08AFDCD4618F10C0F38D1594BE2
:100614007B6502223A7100237B71BB71FB7179689F
:10062400396563F3000563F3410563F3820563F3FE
:10063400C50562F38815082262F3522563F3DE458B
:1006440063F3DF7507F15002294644480BF065FD5A
:100654004422494907F1080002F02AF88046E94695
:1006640002233B7188B06B4613F1100284D00D2035
:10067400002A84D1022139700C28A0DD0D21A0E7C5
:100684004FF0FF324FF0FF33324809F089F9E84662
:1006940002233B7188B06B4613F110022FD00D205A
:1006A40082BB022139700C284CDD0D2142B103209C
:1006B400387100207871B8710120F8717868186178
:1006C4006FF300066FF341066FF382066FF3C506FE
:1006D400032363F38816C1F3090161F352266FF310
:1006E400DE466FF3DF76002331461C480BF015FD20
:1006F400C5464FF40040002109F01AFEA8E76FF048
:100704000040CDE70146042803DDDFF870C0C3F8DC
:1007140014C04FF0020C87F800C0082901DD184905
:10072400996103F11C014FF0000CBCF1000FBAD128
:100734000CF1700EBE441EF870EC01F801EB0CF1E4
:10074400010CF2E76FF01B01B0E700BF68F4000092
:1007540000000020DC020020F4F8000080F7000014
:10076400180E00201CF90000A8F80000CCF80000C6
:1007740030F9000058F90000140E002084F900003C
:10078400D40D00202DE9F04F8DB00592039313464C
:1007940002F004020192C3F3C20210F003030293B5
:1007A40040F0058207468A460132041D002844D0E1
:1007B40027B1E31B0433534500F2FC81039B5D1E08
:1007C400DDF808B0CDF810B0CDF818B000264FF021
:1007D4000408C1460FB1039B2360531E0793002AEC
:1007E40040F34F81059B13F0020223D00120E11B4B
:1007F4008B081AB1B1F5007F80F0E281BBF10F0FD5
:1008040000F2E181002F00F05481DBB20BF13002E1
:100814006A4402F8103C002800F0478163F07F032B
:100824000BF130026A4402F8103C049B0133049338
:100834000BF1010B0434002231E001F0070A5444A7
:10084400CAF1080AB4E7002628E0002626E04FF0A3
:100854000808C14622E0252920D101264FF00408CA
:10086400C1461BE04729F0D82A2912D32A39C9B234
:10087400012000FA01F14FF6DA7001420ED111F0B5
:10088400625F40F0BB8011F0010140F085800E46AC
:1008940004E0202902D0232900D000261D466B1C29
:1008A4006978002900F01981002ED4D07A29CAD899
:1008B4004C29D7D34C392E2960D801A050F821F007
:1008C400A1080000810900008109000081090000DD
:1008D40081090000810900008109000081090000EC
:1008E40081090000810900008109000081090000DC
:1008F40095090000810900008109000081090000B8
:1009040081090000810900008109000081090000BB
:1009140081090000010A0000810900009509000016
:1009240095090000010A0000010A0000010A000004
:10093400A108000095090000530800008109000087
:10094400A1080000810900005F0A00009509000069
:100954005F0A00008109000081090000690A0000A3
:100964008D0900009509000081090000810900003B
:1009740095090000810900008509000000268DE723
:100984004FF00408C14689E74FF00408C14685E7E3
:1009940029786C2924D000264444013CC8F1000184
:1009A4000C40204627B1E11B4944514500F2058122
:1009B400002A5DD1B9F1040F00F08780B9F1080F66
:1009C40040F004811699073121F0070101F1080074
:1009D4001690D1E900010FB1C4E9000108345DE7C4
:1009E40013F8021C6C2904D000264FF00408C146F9
:1009F400D2E700264FF00808C146CDE729784C29F4
:100A04001BD01699073121F0070101F10800169057
:100A1400D1E90001073424F0070447B1E61B083686
:100A2400564514D82D784C2D14D0C4E9000108344F
:100A340000264FF00808C14630E71699073121F027
:100A4400070101F108001690D1E90001E2E76FF017
:100A54001B00A9E0C4E90001E9E700264FF00408FF
:100A6400C14699E7324600264FF00408C14693E791
:100A74000446169A111D169112680392079A1D4690
:100A8400A8E6584B039A9A4204D3574B9A420AD386
:100A9400002300E00023002B7FF4A4AE059B03F0A9
:100AA40002020020A3E60123F5E7069B0133069327
:100AB400BEE608B9019B13B10AF1010AB8E603982E
:100AC4000BF0CEFF831C9A44B2E61699081D1690CB
:100AD400096807B121600434E0E6E31BB3F5806FD5
:100AE40077D287B100223A609B083B70019B73B1B7
:100AF400069BFB70049BBB700BBB029DDDF8109042
:100B0400DDF80C8033E05344A3F108004CE0069B6D
:100B14007B70EFE701339B45EFD903F130026A4460
:100B240012F8101C12F9102C002AF3DA01F07F01DC
:100B3400E21B013252454FD804F8011BEAE7029B3D
:100B4400E9E7019B03B3029EE31B3344013353459E
:100B540045D805F130036B4413F8103C04F8013B0D
:100B64003246414620460BF0ACFF34440135AB45D8
:100B740019D9B9F1000FE4D005F130036B4413F92E
:100B8400103C002BDDDAF1E705F130036B4413F878
:100B9400103C57F82380002247F8232040460BF0EE
:100BA4005FFF461CD0E7E01B0DB0BDE8F08F6FF08F
:100BB4000D00F9E76FF01B00F6E76FF01B00F3E799
:100BC4006FF01500F0E76FF01500EDE76FF015001A
:100BD400EAE76FF01500E7E76FF01B00E4E76FF05A
:100BE4001B00E1E750F30000E80B01002DE9F04F92
:100BF40091B0064600929B461A9F029159B196F80D
:100C04000290CDF80490B9F1000F08D017F0010F4D
:100C140010D1002304E00AF007F80290EFE7002364
:100C240096F80380B8F1000F06D017F0020F1CD11C
:100C3400002202E00123F3E7002202B9BBB13578B8
:100C4400AA00039206EB8505009ADAB1002B40F066
:100C54008580019B002B00F08D8017F0040F40F07D
:100C64008D800020824681467BE00122E5E7009BDF
:100C74001BB15A46029930469847029C204611B04F
:100C8400BDE8F08F029C03BB019BABB317F0040BD0
:100C94002BD01D444FF0000B27E00444013509F12B
:100CA4000109C1451DD22A7800235AF82220194689
:100CB400384609F0CEFF002EEFD01C9B9B45ECD2AA
:100CC40026F81B000BF1010BE7E74FF00009CB46B8
:100CD400CDF80880DDF80480B2461A97009F1B9E69
:100CE400DFE7DDF8088056461A9F07F005030193F5
:100CF4004FF00009B2461DE0DDF804B0F5E717F047
:100D0400020F29D0002600231946009809F0A1FFFC
:100D14001B9B3BB11C9B9B4504D21B9B23F81B00D4
:100D24000BF1010B044416B1019B03B9013C0135DD
:100D340009F10109C145A1D22B785AF823206F4B40
:100D44009A42DCD36E4B9A42D9D217F0010F01D1EB
:100D54000126E8E70126D6E70026E4E70BA84FF0D2
:100D6400000A18B1019A29460BF0ABFE019B1D4401
:100D7400002330E0002082468146F2E7CA4607A8F5
:100D84004FF00009EDE717F0010F0AD009F1010156
:100D940009F140000DEB000909F8142C5FFA81F900
:100DA40017E017F0040F14D00AF101010AF1400012
:100DB4000DEB000A0AF8242C5FFA81FA09E009F124
:100DC400010109F140000DEB000909F8142C5FFA48
:100DD40081F901350133434516D22A7856F8221099
:100DE4004648814202D346488142CCD317F0020FD1
:100DF400E5D10AF101010AF140000DEB000A0AF8FD
:100E0400242C5FFA81FAE4E733788DF83C30737868
:100E14004B448DF83D3017F0020F0AD000238DF8B3
:100E24003F3017F0010F06D117F0040F30D1002323
:100E340002E05346F3E700238DF83E303068069015
:100E44000F9830605A4603993046009FB847041EF5
:100E5400FFF614AF069830605A46514607A8BA46C2
:100E6400B847002843DB2718019A039B1A4411460C
:100E740041445A46029B591A2846D047041EFFF69D
:100E8400FDAE3D19002701965646DDF86CA015E02D
:100E94005346D1E74FF000085A4601210DF11700DF
:100EA400B047002825DB05444346224659463046D0
:100EB40009F0CFFE00281EDB05440137B9450FDDDC
:100EC40007F140036B4413F8143C8DF81730019A72
:100ED40052F82340BAF1000FDCD03AF81780DBE770
:100EE4005A4600210846009B98472C46C6E604460D
:100EF400C4E60446C2E60446C0E600BF50F3000060
:100F0400E80B0100014B1860704700BF1800002077
:100F140010B586B004460390049100210591009118
:100F240003A9064800F024F9059B049A934201DAC8
:100F34000022E254059806B010BD00BF2FAD00009A
:100F44002DE9F04383B0044608461546238B13F07D
:100F5400080F05D103F0070600230093019355E021
:100F6400012909D043F02003238385F31188BFF3BB
:100F74006F8F03B0BDE8F08343F010032383F4E7DD
:100F8400204609F034FF43E0D4F814904A466946F9
:100F9400204609F045FF4FF00008238B03F00707B4
:100FA400B74269D0A268002A66D0012243F0080340
:100FB400238385F31188BFF36F8F002A64D1009BCC
:100FC4002BB14B463A466946204609F0A2FFB8F1D8
:100FD400000F02D034492046C0474FF02003EFF3FE
:100FE400118583F31288BFF36F8F238B23F00803DB
:100FF4002383238B13F0100F4CD023F0100323838F
:101004000120268B06F007060028AED00228B7D0B0
:101014000028AAD0013804282AD801A353F820F0C4
:101024008D0F000075100000391000004D100000F5
:10103400611000002369D3F800800621204609F0DE
:10104400ACFE4FF00009A8E72369D3F8048004211B
:10105400204609F0A2FE4FF000099EE72369D3F869
:1010640008800521204609F098FE4FF0000994E716
:101074004FF00008C14690E7009A0AB1002295E7B4
:10108400B8F1000F92D1B4E74A463946204609F038
:101094008CFE94E713F0200F04D023F02003238365
:1010A4000220AEE70020ACE745AF000084460846C6
:1010B400012226E09CF8003043F004038CF8003051
:1010C400F2B101301CE09CF8003043F008038CF8C6
:1010D4000030F5E79CF8003043F010038CF8003042
:1010E400EEE79CF8003043F020038CF80030E7E78B
:1010F4009CF8003043F040038CF80030E0E7002215
:1011040042B30378203B102BF9D801A151F823F006
:10111400D91000000311000003110000E7100000C3
:10112400031100000311000003110000031100006B
:10113400031100000311000003110000CB10000094
:1011440003110000B9100000031100000311000096
:10115400F51000009CF8003003F04403442B00D049
:1011640070479CF800306FF386138CF80030F7E773
:101174002DE9F04F91B006460D46914603930024A5
:1011840099F80000002800F0B982252808D009F158
:1011940001092946B0470028C0F2B1820134EFE7C3
:1011A40000230493059306930793089309934946F0
:1011B40006A80AF0BAFB02909DF8193013F0010F4B
:1011C40000F09780039B1A1D03921F68002FC0F242
:1011D40088809DF8193013F0040F00F09C80039B65
:1011E4001A1D0392D3F800A0BAF1000FC0F28A804E
:1011F4000023079308939DF81A3003F007039DF822
:101204001910C1F3C301012B00F08E80022B00F0F2
:10121400D380042B00F02481032B00F03B819DF844
:10122400188018F0030B40F03B819DF81B30253BE0
:10123400532B00F2CA81DFE813F04001C801C80152
:10124400C801C801C801C801C801C801C801C80152
:10125400C801C801C801C801C801C801C801C80142
:10126400C801C801C801C801C801C801C801C80132
:10127400C801C801C801C801C801C801C801C80122
:10128400C801C801C801C801C801C801C801C80112
:10129400C801C801C801C801C801C801C801C80102
:1012A4008101C801C801C801C801C801C801C80139
:1012B400C801C801C8015E016701C801C801C801AD
:1012C400C8016701C801C801C801C801BD01810185
:1012D400A101C801C8014D01C8018101C801C801AB
:1012E40081019DF8183043F004038DF818307F42D3
:1012F4006FE79DF91830002B02DB4FF0FF3768E7EA
:10130400079F66E79DF819306FF341038DF8193094
:101314004FF0FF3A6CE713F0020F02D0DDF820A083
:1013240066E74FF0FF3A63E7CB1E042B04D8DFE8EF
:1013340003F00B1D29353500039B1A1D03921B680E
:10134400DA170493059206E0039B1A1D03921B68A7
:10135400DA1704930592012928D002297FF45FAF9C
:10136400BDF91030DA170493059258E7039B07334D
:1013740023F0070303F108020392D3E90023CDE924
:101384000423E8E7039B073323F0070303F1080270
:101394000392D3E90023CDE90423DCE7039B1A1D60
:1013A40003921B68DA1704930592D4E79DF9103071
:1013B400DA170493059232E7CB1E042B04D8DFE836
:1013C40003F00B1F35414100039B1A1D03921B6858
:1013D4000493002305931EE09DF81B30632B07D074
:1013E400039B1A1D03921B6804930023059312E0C8
:1013F400039B1A1D03921B680493002305930AE0C0
:10140400039B073323F0070303F108020392D3E994
:101414000023CDE9042301291CD002297FF4FFAE67
:10142400BDF81030049300230593F8E6039B0733BB
:1014340023F0070303F108020392D3E90023CDE963
:101444000423E8E7039B1A1D03921B6804930023FB
:101454000593E0E79DF81030049300230593DEE63E
:1014640008290BD0039B073323F0070303F1080279
:101474000392D3E90023CDE90423D0E6039B073389
:1014840023F0070303F108020392D3E90023CDE913
:101494000423C4E6039B1A1D03921B680493BEE64F
:1014A400029F3B464A46294630460AF0E4FA0028A1
:1014B400C0F225810444B94662E629462520B04796
:1014C4000028C0F21C810134D8460DF13E0A4FF0C9
:1014D40000097FE0DDF81090BAF1000F07DB5146F8
:1014E40048460BF0C6FA09EB000AD84672E04846B3
:1014F4000BF0B6FAF7E7049B8DF82830D8460DF1C7
:10150400290A0DF1280965E018F0080F05D118F033
:10151400100804D04FF0200801E04FF02B08049A83
:10152400059B002B02DB0492059308E0524263EB17
:101534004303049205934FF02D0800E0D8460DF1C3
:101544003E0300930AAB06AADDE904010AF024FA7B
:101554008146BAF1000F6CDB0DF13E03A3EB0903E6
:101564009DF818206FF386128DF818209A4563D9D8
:10157400AAEB030307930DF13E0A2BE0049828B964
:10158400D846DFF880A1AAF1050923E00DF13E0356
:1015940000930AAB06AA00210AF0FEF981469DF8E1
:1015A4001A3043F010038DF81A3078238DF81B306D
:1015B400D846CEE72246049906A80AF03DFAD84652
:1015C4000DF13E0A4FF0000904E0D8460DF13E0A41
:1015D4004FF00009B9F1000F00F08D80AAEB090368
:1015E400B8F1000F00D001339DF81A2012F0100F4B
:1015F40025D0023307990B4412F0400F01D0089A0A
:101604001344002F31DDFF1A9DF8183013F0040F36
:101614002BD113F0400F17D0B8F1000F17D0294683
:101624004046B04700286ADB0134D8464FF0300BFF
:101634000FE00DF13E0ACDE70DF13E0ACAE712F0C4
:10164400080FD7D00133D5E74FF0200B01E04FF05E
:10165400300B3B465F1E002B07DD29465846B0473A
:1016640000284CDB01343B46F4E7B8F1000F05D009
:1016740029464046B047002841DB01349DF81A3022
:10168400C3F30012C3F3C0031A4305D02946302024
:10169400B047002833DB01349DF81A3013F0100FE3
:1016A40006D029469DF81B00B047002827DB0134EB
:1016B400079B03F1FF38002B07DD29463020B04794
:1016C40000281CDB01344346F3E753464A462946C7
:1016D40030460AF0D0F9002811DB0444002F07DD5E
:1016E40029462020B047002809DB0134013FF5E7F3
:1016F400DDF8089044E5DDF8089041E5204611B096
:10170400BDE8F08FC1F9000008B54FF02002EFF3F7
:10171400118382F31288BFF36F8F0BF012F9034821
:1017240009F01FFB01F0CAFCFCE700BFC4F900008C
:1017340068B108B5064A074B1B680749A1FB0313A8
:101744009B0C00FB03F042F00103984708BD70476F
:10175400A0F800002401002083DE1B4300F01F02D8
:10176400400901280AD00648803250F8223023F07C
:10177400E04343EA017140F8221070470148F3E75F
:10178400002584500028845038B54FF02003EFF32F
:10179400118583F31288BFF36F8F0121164BC3F8B1
:1017A4000015164A0223C2F8D0361548D0F8003284
:1017B40023F0E04343F04053C0F80032D0F8043241
:1017C40023F0E04343F04053C0F80432C2F8041756
:1017D400C2F80419C2F8001B002405E00121094BDA
:1017E400185DFFF7BBFF0134032CF7D985F311888B
:1017F400BFF36F8F002038BD001000500040005030
:1018040000258450F0F90000062800D0704708B580
:1018140001480AF0CEFB00BF0040005000B583B081
:101824000246084B009308230193074968460AF0CF
:10183400CDFB002803DB012168460AF0D6FB03B088
:101844005DF804FB98F400001DC0000010B5C4B29C
:101854000123A340054AC2F80835C0F3072004F069
:10186400DBFE204605F0AAFC10BD00BF007001504D
:1018740038B504460D46C0F3072004F07DFDC4F3DB
:1018840007439B00DBB23DB1E4B2064A44F0004496
:10189400D450C0F8804038BD0021C0F88010014AFF
:1018A400D150F8E780A0025070B505460E46040EEC
:1018B400A40004F58074C0F307200BF0C5FF46B103
:1018C400EDB245F00045C0F88050A4B2044B1D5160
:1018D40070BD0022C0F88020A4B2014B1A51F7E772
:1018E40080A0025070B582B00446C0F3072630468B
:1018F40004F04AFD054600212046FFF7D5FF0121EB
:101904002046FFF7B5FF05F132020194044B009322
:101914005200002330460BF0BBFF02B070BD00BF85
:1019240009C00000F0B583B000AF381D05F03EFCDF
:10193400314B98423BD06FF012046D4688B06B4631
:1019440013F1100252D00C213AB10846042901DDEA
:101954002A4E5E61082800DD9C610B2949DD4FF0A9
:101964000C0C3AB10321397000217970B970F97007
:101974003868186100216FF300016FF341016FF3C0
:1019840082016FF3C501012363F388110CF47B7C9E
:101994006CF352216FF3DE416FF3DF7100231848BB
:1019A4000AF0BBFBAD4620460C37BD46F0BD04F043
:1019B4000BFE041E16DB7C710723BB710823FB712D
:1019C4007868FFF72BFF041EB7DB3B79012101FA8E
:1019D40003F30C4AC2F804357868FFF765FF002C5E
:1019E400E1D0AAE7387905F0E9FBF8E76FF00041A8
:1019F400AAE76FF01B0CB4E70000AD0BF8F9000088
:101A0400E0F700000070015005F068BAF8B506462A
:101A1400002400E001340E4B0E4A9B1AB4EB231F42
:101A240014DA0C4D05EB04156B685B79002BF1D0CF
:101A3400314628460AF011FB0028EBD02701054B5C
:101A4400DB591B68314628469847E3E7F8BD00BFD9
:101A540008F80000F8F7000070B506460D460024AB
:101A640003E02A46314698470134084B084A9B1A3A
:101A7400B4EB231F08DA2301054A02EB0410D35800
:101A84009B69002BEDD1EFE770BD00BF08F80000A3
:101A9400F8F700002DE9F041074605460AE007EA99
:101AA4000807144B03EB06135B68042219682046ED
:101AB40000F060FAD5B195FAA5F6B6FA86F60D4CA3
:101AC40004EB06140123B3406FEA030825EA030577
:101AD400237B002BEED03301064AD3581B69002B1D
:101AE400DDD0204698470028E4D1D8E73846BDE841
:101AF400F08100BFF8F700002DE9F04780460F465B
:101B0400244BD3E8EF6F721CC3E8E12F0029F8D10E
:101B1400002E3BD1002409E01F4B03EB09135B6843
:101B240004221968284600F025FA01341B4B1A4A8E
:101B34009B1AB4EB231F1BDAA146174D05EB0415C2
:101B44002B7B002BF1D02301134A52F803A0DAF8BF
:101B54000C300BB128469847DAF81030002BDBD054
:101B6400284698470028D7D00123A3401E43DCE72A
:101B7400B8F1000F0BD056B13046FFF78BFF064685
:101B8400002FF8D00A200AF06EFAF4E70026304657
:101B9400BDE8F0879C0E0020F8F7000008F800006C
:101BA40008B5064B186018B1054B1B68092B00DCFF
:101BB40008BD044807F0D0FEFAE700BF900E0020ED
:101BC400980E0020EC02002008B5024807F0C4FE7D
:101BD40008BD00BFEC02002030B589B000220F49D7
:101BE4000F480DF020FB0F4D00220023CDE9062302
:101BF400002404940E2303930294019400940A4B4A
:101C04004FF44072094928460CF0FBFF0849284666
:101C140007F0FAFC204609B030BD00BFCD1B000020
:101C2400B007002000030020E91E0000301D002042
:101C34002CFA0000014B53F82000704748FA0000CA
:101C440038B108B5044A1060084600F0ADFB002026
:101C540008BD6FF0150070471C00002008B5054B47
:101C64001B781BB1034B01221A7008BD024807F010
:101C740073FEF7E7241D0020EC020020094BD3E893
:101C8400EF1F0131C3E8E21F002AF8D100B9704701
:101C9400054BD3E8EF1F0139C3E8E21F002AF6D051
:101CA400F7E700BF940E0020980E0020044B00209C
:101CB4000146D3E8EF0FC3E8E21F002AF9D17047C9
:101CC400940E002038B5FFF7F1FF0546002400E02C
:101CD40001340B4B0B4A9B1AB4EB231F0FDA094850
:101CE40000EB041043685B79002BF1D02301054A13
:101CF400D3585B68002BEBD029469847E8E738BDFA
:101D040008F80000F8F70000034B18680028D4BF57
:101D140000200120704700BF940E002008B502493E
:101D2400024809F0AFFF08BD34FA0000580E002045
:101D340008B50023054A1370054A13604FF40041A7
:101D44000448FFF77DFFFFF7E9FF08BD251D0020CC
:101D5400940E002063C0000008B501460022002351
:101D6400014809F0B0FF08BD580E002008B502482C
:101D74000AF060F808BD00BF580E002008B50146FF
:101D840001480AF0C8F808BD580E002008B50248FA
:101D94000AF0FEF808BD00BF580E00200F4B18785B
:101DA40000B9704710B5FFF7E1FF044668B10C4B6A
:101DB400D3E8EF1F0139C3E8E21F002AF8D1204617
:101DC400FFF724FE2046FFF7D9FFFFF79DFF10B968
:101DD400FFF7DCFF10BDFFF775FFF9E7241D0020B6
:101DE400980E0020134B1B7803B1704710B50021E7
:101DF4000120FFF781FE002400E001340E4B0F4A5E
:101E04009B1AB4EB231F0CDA0C4800EB0410436854
:101E14005B79002BF1D02301084AD3589B6898477B
:101E2400EBE7FFF7BBFF0028FBD1024B01221A703E
:101E340010BD00BF251D002008F80000F8F70000C1
:101E440010B582B0194BD3E8EF2F511CC3E8E01F43
:101E54000028F8D1164B1B7863B9164B1B68BBB12D
:101E6400C2B10A2A14D114480DF0E9F9134807F055
:101E740073FD0DE04FF02003EFF3118483F3128818
:101E8400BFF36F8FFFF78AFF84F31188BFF36F8F5F
:101E940002B010BD00220023CDE900234FF400421C
:101EA4000023054808F09CFCF2E700BF980E0020D0
:101EB400251D0020900E0020B0070020EC02002019
:101EC40010B50446054B1B689847A060214604489A
:101ED40009F087FFFFF7B4FF10BD00BF1C0000200E
:101EE400580E00202DE9F04100210846FFF704FEBA
:101EF400804640B140F26766002708F043FAFFF7D6
:101F04004FFE002515E04FF0FF364FF0FF37F4E7A2
:101F14004046FFF7BFFD804670B94FF0FF364FF0E3
:101F2400FF3709E02C4632463B46094807F038FDA6
:101F34002546B8F1000FEBD1FFF730FF0446002827
:101F4400F6D1002DEED000210846FFF785FDEAE723
:101F5400EC020020054B064A9B1AB1EBD30F02D2C8
:101F640052F8310070470020704700BFF8F70000B6
:101F740070F7000008B5074BC31A1B110133426800
:101F8400137143681960436801225A71FFF766FEB2
:101F940008BD00BFF8F7000000B589B005920693AC
:101FA4000023079362B1074A0C9B02930B9B019396
:101FB4000A9B009305ABFEF719FE09B05DF804FB1C
:101FC4000022F1E7C3C000000EB400B584B001469E
:101FD40005AB53F8042B0393002000900348FFF74C
:101FE400C7F804B05DF804EB03B07047E3C2000027
:101FF40030B585B011F0440F05D01A4B1C6834B9C4
:10200400002005B030BD1849FFF7DEFFF9E7174B94
:102014001968B2FBF1F1B1FBF4FC154AA2FB0C32D6
:10202400D20A4FF4616E0EFB12CE124BA3FB0E5379
:102034005B0904FB1C114FF47A7C0CFB01F1B1FB2E
:10204400F4F504FB15110CFB01F1B1FBF4F1029161
:102054000195C3EB0311AEEB810100910649FFF733
:10206400B3FFCEE7A40E002058FA0000A00E002013
:10207400C5B3A2918988888864FA000061B108B563
:102084002AB1064A52F8232012B9054A00E0044A4C
:102094000449FFF799FF08BD704700BF08FB000023
:1020A40080FA000088FA00002DE9F04105469046C8
:1020B4001E46069F81B900242EB132461049284697
:1020C400FFF782FF0444B7B1B8F1000F0DD0079BAE
:1020D400042B13D00B4909E00B4B079A53F8222029
:1020E4000A49FFF771FF0446E6E706493A462846DF
:1020F400FFF76AFF04442046BDE8F0810449F5E790
:10210400A0FA000090FA00001CFB000098FA0000FE
:102114008CFA00002DE9F04F85B005460C461646B2
:1021240003939DF8408001F0020B01F0010AC1F312
:10213400C00909F0C2FFD8B1024612492846FFF788
:1021440043FF0746BBF1000F14D1424651462846CF
:102154000AF085F8CDF804800F9B00930E9B32465D
:1021640049462846FFF7A0FF384405B0BDE8F08F84
:102174000027E7E7039A21462846FFF739FF07447B
:10218400E3E700BFA4FA000011F0100F0BD108B56B
:1021940011F0200F03D00449FFF716FF08BD0349CF
:1021A400FFF712FFFAE7704760010100C40B01005A
:1021B4002DE9F04105460F46164698460699FFF765
:1021C400E3FF0024444505DA23492846FFF7FCFED3
:1021D4000134F7E7002409E01F492846FFF7F4FE1D
:1021E4000BE01E492846FFF7EFFE01340F2C0CDCF0
:1021F400002C02DD14F0070FEED0B442F1D23A5DA8
:1022040017492846FFF7E0FEEFE716492846FFF78F
:10221400DBFE002409E010492846FFF7D5FE0BE059
:1022240011492846FFF7D0FE01340F2C12DC002C94
:1022340002DD14F0070FEED0B44206D23A5DA2F1EB
:1022440020035E2BECD92E22EAE703492846FFF748
:10225400BBFEE9E7BDE8F0819CFA0000B0FA00009B
:10226400A8FA0000B4FA0000B8FA00002DE9F04121
:1022740084B004469DF828500B9F0D9E8DB94FF0F5
:10228400000837B1BDB914483B462246134908F04B
:10229400F7FC96B9D5B920460AF014F804B0BDE8A5
:1022A400F0810295019300920B4600220E99FFF7EC
:1022B40031FF8046E5E70A48E6E70E9B0093434674
:1022C40032460C99204609F0E2FFE3E72A460E99CC
:1022D400204609F0D0FFDEE713C3000053C200001C
:1022E400E3C200002DE9F04387B006460C46904651
:1022F400D1F808900F88C7F382174B680878C0F3A9
:10230400C20033B11149591A41F3CF01002919DA36
:102314000023214651F8105BC5F349256288C2F3B6
:10232400CB02481905B90021CDF810800392029020
:1023340001910097002249463046FFF797FF07B006
:10234400BDE8F083FFF706FE0346E2E770F70000FE
:1023540070B582B00446056842F20F738B4228BF01
:102364000B460E4A0521684608F009FD06466368D7
:102374005B680B220A49284609F05CFF63685B68C6
:1023840032466946284609F055FF63685B681B229C
:102394000449284609F04EFF02B070BDBCFA0000A3
:1023A400DCFA0000C0FA0000074B01221A6004E0C6
:1023B4004008054A13685B001360044B9842F7D841
:1023C400034B1860704700BFA00E002040420F006E
:1023D400A40E0020034B01221A70034B034A1A6017
:1023E400704700BF261D0020D00E0020D40E002010
:1023F400014B196000207047BC0E002008B518B9C5
:10240400074B00221A7008BD064B1B7823B141F21A
:1024140088300CF0C9FEF6E7052009F086FFF2E7E4
:10242400261D0020271D002038B504460A4B012232
:102434001A700A4B1B782BB938BD651E2046FFF76E
:10244400DDFF2C46002006F0DDFD0028F4D0024B11
:102454001B78002BF1D1EFE7261D0020271D00205B
:10246400F8B506460D4604270DE02A4631460020FD
:1024740006F02EFD044614E03846FFF7D5FFDCB91C
:10248400114B1B78C3B1114B1B78002BEDD106F017
:10249400C9FD2A463146002006F01AFD044606F01E
:1024A400CDFD002CE8D1084B1B78002BE7D0013F71
:1024B4003846FFF7A3FFE2E714B9034B1B7803B9CF
:1024C4002C462046F8BD00BF261D0020271D0020F5
:1024D40008B5034B01221A70024809F0F3FE08BD47
:1024E400271D00205CFB000008B50248FFF730FF01
:1024F40008BD00BF5CFB000010B50C46044B186817
:10250400FFF798FB03460F2221460248984710BD67
:10251400BC0E00205CFB000000B58FB040B18368A6
:1025240073B31B68002B53D098470FB05DF804FBBE
:10253400284B0D9302238DF8043000238DF80530C9
:102544008DF806308DF80730019A0C92194663F322
:10255400000163F3410163F3820163F3C5010122C6
:1025640062F38811082262F3522163F3DE4163F3BC
:10257400DF710CAA184809F0D0FD6FF01500D4E7FC
:10258400164B079302238DF8043000238DF8053091
:102594008DF806308DF80730019A0692194663F3D8
:1025A400000163F3410163F3820163F3C501012276
:1025B40062F38811082262F3522163F3DE4163F36C
:1025C400DF7106AA044809F0A8FD6FF00400ACE727
:1025D4000020AAE76CFB000098F7000080FB0000D5
:1025E40010B58EB068B1034659B152B1806880B35A
:1025F400846874B341F8043B84681846A0470EB05D
:1026040010BD284B0D9302238DF8043000238DF860
:1026140005308DF806308DF80730019A0C92194672
:1026240063F3000163F3410163F3820163F3C501C2
:10263400012262F38811082262F3522163F3DE411E
:1026440063F3DF710CAA184809F067FD6FF01500F9
:10265400D5E7164B079302238DF8043000238DF839
:1026640005308DF806308DF80730019A0692194628
:1026740063F3000163F3410163F3820163F3C50172
:10268400012262F38811082262F3522163F3DE41CE
:1026940063F3DF7106AA044809F03FFD6FF00400FC
:1026A400ADE700BFA0FB000098F7000080FB00002E
:1026B40010B594B080B1134684460068002833D026
:1026C4008268002A58D05468002C55D00A46DCF899
:1026D4000410A04714B010BD3B4B139302238DF894
:1026E400043000238DF805308DF806308DF807305E
:1026F400019A1292194663F3000163F3410163F3F3
:10270400820163F3C501012262F38811082262F396
:10271400522163F3DE4163F3DF7112AA2B4809F0FF
:10272400FCFC6FF01500D5E7294B0D9302238DF8BF
:10273400043000238DF805308DF806308DF807300D
:10274400019A0C92194663F3000163F3410163F3A8
:10275400820163F3C501012262F38811082262F346
:10276400522163F3DE4163F3DF710CAA174809F0C9
:10277400D4FC6FF00100ADE7164B079302238DF8EC
:10278400043000238DF805308DF806308DF80730BD
:10279400019A0692194663F3000163F3410163F35E
:1027A400820163F3C501012262F38811082262F3F6
:1027B400522163F3DE4163F3DF7106AA034809F093
:1027C400ACFC6FF0040085E7CCFB000098F7000038
:1027D400E0FB000080FB000008B5024909F082FE1E
:1027E40008BD00BFECF9000030B585B004460D46C5
:1027F4000B490291D0F89011019100934FF0FF33EF
:1028040000F1E001284606F061F938B9012385F8A2
:102814006430D4F88C310BB12846984705B030BDEC
:1028240041C5000008B58446084611461A46DCF83E
:10283400103003F55D73D3E8AF3F022B07D14AB1E3
:1028440058B109F034FF084B984209D008BD6FF025
:102854000F00FBE76FF04C00F8E76FF00100F5E7BD
:102864006FF00B00F2E700BF2EF8FFFF10B504462F
:102874000022044909F01BFFA36E1B680BB1E06E34
:10288400984710BDECF90000F0B583B044680569C1
:10289400E369012B1FD0276A05F5287630460CF032
:1028A40083FA606A002300933B464FF480620E492A
:1028B40001EB8021304607F081F90C4905F52470BD
:1028C4000CF04CFA14342A460949204609F050FD0C
:1028D40020B103B0F0BD276A103FDDE70121204697
:1028E40009F055FDF5E700BF3020002097C7000030
:1028F40087C700002DE9F04385B0044646680569A2
:1029040005F55D790123D9E8EF2F002A03D1C9E841
:10291400E13F0029F7D152D105F5D478314640463C
:1029240009F0E9FE074650B10023D9E8EF2FC9E8C2
:10293400E13F0029F9D1384605B0BDE8F083214BC9
:10294400C5F88832C5F884623168404600F068F9F9
:1029540007460028E8D12046FFF796FF07460028DF
:10296400E2D1194BC5F88C31184BC5F89031B26AD5
:10297400D5F84832D5F8701315480390D5F8F0010E
:102984000290D5F8E8010190CDF80080284600F0C7
:10299400A3F807460028C7D105F1E00006F052F974
:1029A400C5F87803002807DB0223D9E8EF2FC9E82C
:1029B400E13F0029BFD0F8E76FF01507B4E76FF0E7
:1029C4007707B8E7CFC3000071280000CDC6000028
:1029D400BBC5000010B58CB00DF1040C0D4C0FCC30
:1029E400ACE80F000FCCACE80F0094E807008CE8CB
:1029F400070001AC0CAB9C4202D300200CB010BD0C
:102A040023680BB12C34F5E70422002160680AF036
:102A140087F8F7E750F800002DE9F04385B0074642
:102A24000E469146D0F89C80002400E00134012C2D
:102A340028D8A8F5C071C4EBC40501EB0515C4EB97
:102A4400C4031B014033194430460AF01CF8002823
:102A5400ECD10E4B0293D8F810300193CDF80090CE
:102A64004FF0FF3332463946284606F02FF848B96E
:102A7400012185F86410D8F80C30002BD6D02846F4
:102A84009847D3E705B0BDE8F08300BFDDC7000079
:102A9400C8B110B584B014460346BAB1E030012978
:102AA40002D0002004B010BD0A4A0292D3F890313B
:102AB40001934FF0FF33009304F140020146204696
:102AC40006F004F8EEE76FF0150070476FF015009C
:102AD400E8E700BFDDC700002DE9F04184B00B9D9D
:102AE4000D9C38B31F4606463DB3BCB1C1B9029232
:102AF400039206F5C0780C9A294640460BF08AFFEB
:102B040002AB0193CDF800803B4622460A9906F1B8
:102B1400E00006F0ADF804B0BDE8F081084CE5E74C
:102B2400002300933B4622460A9906F1E00006F092
:102B34008BF9F0E76FF01500EDE76FF01500EAE7A9
:102B44001D2A000010B584B00446114A02AB92E875
:102B5400030083E80300184605F098FE08B104B0AA
:102B640010BD04F1340005F071FE0028F7D101AA6C
:102B7400084909480BF008FA0028F0D1019B9A682B
:102B84001AB10C33C4F8A030E9E70023FAE700BF18
:102B94007CF8000034FC000040FC000038B504461A
:102BA4000D46D0F8940009F037FEC4F8D40078B389
:102BB400D4F8940009F030FEC4F8D80058B3D4F81F
:102BC400A010C4F8B810D4F88C30C4F8A830B4F805
:102BD4009420A4F8B0200423C4F8AC30D4F8D4C0B2
:102BE400C4F8A4C0C4F8D010D4F89010C4F8C0102D
:102BF400A4F8C820C4F8C430C4F8BC00A5610223FA
:102C0400A362064B236204F1A403E362002038BDEF
:102C14006FF00B00FBE76FF00B00F8E748FC0000D7
:102C240010B330B585B00D460446114B4363012300
:102C3400C363D0F8981001630023029301934FF00B
:102C4400FF330093D0F89C3000F1300240300BF099
:102C5400C0F92046FFF776FF08B105B030BD29461C
:102C64002046FFF79BFFF8E76FF01500704700BFA1
:102C740034FC000070B505464FF02003EFF31186D5
:102C840083F31288BFF36F8F0E4B1C680DE0A268AC
:102C94003AB10D4B1B7D03EB43030C4911F82300A0
:102CA40090472346246804B123B12CB1002DEED003
:102CB4006268EDE71C46F8E786F31188BFF36F8F6F
:102CC40070BD00BF040F0020081B0020F80E002078
:102CD40008B5064B23B14178007809F071F908BDB5
:102CE400002383F31188BFF36F8FF8E7C5BF00009B
:102CF40070B50E4B1C7D21460D4809F09BFD00B9B3
:102D040070BD650004EB44000A4E06EB8000FFF73B
:102D1400DFFF0020FFF7AEFF2B19990006EB8303BA
:102D2400002272505A609A60EAE700BF081B002034
:102D34000C0F0020F80E0020F8B50546384B1C7D1A
:102D44004FF02003EFF3118683F31288BFF36F8FE4
:102D540004EB4402334B13F82230002B39D0324BAE
:102D640003EB820C2F4F4FEA820E07EB820393E8AA
:102D740007008CE80700002307F80E3086F311885B
:102D8400BFF36F8F04EB4403274A12F82330002B60
:102D940044D0B5F1FF3F2BD106F0E0FF0120FFF74F
:102DA40069FF2146214809F05DFD214B5BB11E4AB4
:102DB40004EB440302EB830304EB4404597812F854
:102DC4002400FEF721FDFFF793FF07F0C1F901206E
:102DD400F8BD0146204600F031F80028CED004EBBF
:102DE4004401114B03EB810307C883E80700C5E7DF
:102DF40004EB44020C4B03EB82039868410CC003C0
:102E04000C4BC0180C4A4FF0000341F10001FDF7D0
:102E14009FF90121281A0CF094F9BDE70020D7E7A7
:102E2400081B0020EC0E0020F80E00200C0F0020E0
:102E34000D1800003F420F0040420F002DE9F04101
:102E440082B00E4601A900F045F8441E24B207E002
:102E5400B6F1FF3F33D08044B04530D9013C24B2B1
:102E6400002C2BDB019B04EB440203EB8205697805
:102E740013F8220009F005FD0028EFD16868410C21
:102E8400C003114FC019114A4FF0000341F1000172
:102E9400FDF75EF98046AB68590CDB03D8190B4A81
:102EA4004FF0000341F10001FDF752F9084B1B6894
:102EB400B3F1FF3FCCD08342CAD8CFE700252846E0
:102EC40002B0BDE8F08100BF3F420F0040420F0056
:102ED4004C00002008B9024B0B600020704700BF73
:102EE40070FC000008B5024807F06CFD08BD00BF87
:102EF40070FC000008B308B54368042B07D0082B06
:102F040012D0FBB1006806F0E9FC002014E003686D
:102F14000022D3E8EF1F012903D1C3E8E02F0028E2
:102F2400F7D10DD1104607E003681B7803F58073D1
:102F34000020054A42F8230008BD6FF4E0407047C2
:102F44000248F9E70248F7E700000350E98FFFFF62
:102F5400EA8FFFFF70B308B54368042B04D0082B35
:102F64000FD0C3B915480BE003680122D3E8EF1F63
:102F7400002903D1C3E8E02F0028F7D116D100209F
:102F840008BD03681B7803F580730D4A52F823309B
:102F940073B90020F4E700684FF0FF324FF0FF33BD
:102FA40006F01EFC0028EBD00648E9E70548E7E7F1
:102FB4000448E5E76FF4E040704700BFEA8FFFFF85
:102FC40000000350E98FFFFF10B5044688B1636821
:102FD400042B0DD0082B0BD053B113F0020F0DD0DE
:102FE400214609480BF0BBFD0023236000236360E6
:102FF40010BD064B5B6806489847E8E71422002199
:10300400206809F08DFDF1E710140020DC01002098
:1030140078FC000010B5044678B16368042B0BD02B
:10302400082B09D00BB9236863B120680BF027FE85
:10303400636843F00103636010BD0F4B5B680F4886
:103044009847EAE74FF0FF324FF0FF3321460C4830
:1030540006F086FA08B923681BB9074B5B68094870
:10306400984714220021206809F05AFD636843F050
:1030740002036360D9E700BFDC01002078FC000094
:1030840010140020A0FC000008B5402314220449B9
:1030940004480BF056FD0449044807F0F5FC08BD4C
:1030A400100F002010140020D0FC0000E4FC0000ED
:1030B400014910220A60704710ED00E072B64040EA
:1030C40080F31188BFF36F8FBFF34F8F30BF62B6A9
:1030D400BFF36F8F704700BF72B6494081F3118808
:1030E40020BF80F3118862B6704700BF2DE9F0411C
:1030F40082B000AF0446D0F800E0D0F804C086687F
:103104006D468AB06B4613F1100200F0F38014216F
:103114008AB10846042903DDDFF80882C3F8148065
:10312400082801DDC3F818E00C2801DDC3F81CC031
:10313400102800DD1E62132940F3DF804FF0140CC9
:103144003AB10521397100217971B971F971786841
:10315400186100216FF300016FF341016FF38201E5
:103164006FF3C501012363F388110CF47D7C6CF3C8
:1031740052216FF3DE416FF3DF7100236A4808F0D8
:10318400CCFFAD46D4F80CE0D4F810C066696D46A7
:103194008AB06B4613F1100200F0B28014218AB198
:1031A4000846042903DDDFF88481C3F81480082865
:1031B40001DDC3F818E00C2801DDC3F81CC0102899
:1031C40000DD1E62132940F39E804FF0140C3AB1C7
:1031D4000521397100217971B971F9717868186123
:1031E40000216FF300016FF341016FF382016FF36C
:1031F400C501012363F388110CF47D7C6CF3522127
:103204006FF3DE416FF3DF710023474808F085FF59
:10321400AD46E6696D4688B06B4613F1100275D071
:103224000C214AB10846042903DDDFF804C1C3F8C0
:1032340014C0082800DD9E610B296ADD4FF00C0CD8
:103244003AB10321397100217971B971F971786842
:10325400186100216FF300016FF341016FF38201E4
:103264006FF3C501012363F388110CF47B7C6CF3C9
:1032740052216FF3DE416FF3DF7100232A4808F017
:103284004CFFAD46A46988B06B4613F1100243D0DD
:103294000C213AB10846042901DD264D5D61082858
:1032A40000DD9C610B293ADD0C243AB1032139710C
:1032B40000217971B971F9717868186100216FF38F
:1032C40000016FF341016FF382016FF3C501012324
:1032D40063F3881104F47B7464F352216FF3DE41C9
:1032E4006FF3DF710023104808F017FF0837BD465D
:1032F400BDE8F0816FF000410AE76FF01B0C1FE797
:103304006FF000414BE76FF01B0C60E76FF000417A
:1033140087E76FF01B0C93E76FF00041B9E76FF09C
:103324001B04C2E7F4FC0000B8F7000024FD000011
:1033340054FD000064FD0000002807DB00F01F02BC
:10334400400901239340024A42F82030704700BFED
:1033540000E100E000280CDB00F01F02400901231B
:1033640093402030034A42F82030BFF34F8FBFF31D
:103374006F8F704700E100E0002808DB4901C9B203
:1033840000F1604000F5614080F80013704700F0E0
:103394000F004901C9B2014B1954704714ED00E004
:1033A4004209054B53F8222000F01F00012303FAC1
:1033B40000F01040704700BF00E100E030BFFFF7AD
:1033C400FDBF00BF08B50B4B0B4A22F07F029A6089
:1033D400BFF34F8FBFF36F8FD3F8882022F47002AE
:1033E400C3F8882006F006F807F01EF800F09AFFEC
:1033F40006F05CF800ED00E0000000000A4A936863
:10340400C3F8A80009490968C3F8AC1008494B6817
:1034140043F080534B60002383F31188BFF36F8F15
:103424009368D3F8AC007047081B0020340A0100ED
:1034340000ED00E014498A684FF030001044EFF3C7
:10344400098C80E8F01F202080F31288BFF36F8F6F
:103454000E4F4FF00066CA698A603E60D2F8A80039
:103464000023C2F8A83080F3118802F1300090E8FC
:10347400F01F8CF3098802F1000004B509F035FA55
:10348400BDE8044070470000081B002004ED00E084
:103494001EF0040F0CBFEFF30880EFF3098081697D
:1034A40011F8021C0229FFD001B509F0FCF901BD95
:1034B40010B4A2F120040E4942F8081C21F00101C5
:1034C40042F8081C42F8203C019B42F81C3C029B39
:1034D40042F8183C039B42F8143C4FF0807342F8C6
:1034E400043C04650023C0F8A83010BC704700BF3A
:1034F400BDB00000094B9860D0F8983083F30B8876
:10350400104681F30988002163B681F31188BFF363
:103514006F8F0022002307F0CFFD00BF081B00209F
:1035240001B572B60B4A906900281EBF0021916153
:103534000BF089FB62B6EFF30580A0F110004FEAAF
:10354400C0000549014409C99847BDE80140034941
:1035540008470000081B0020F8F40000653500004F
:10356400044B9968D869884203D003494FF08052CC
:103574000A607047081B002004ED00E010B588B015
:1035840000241C7002F07F44B4F17F4F34D102F068
:103594000C04082C05D012F0080F2AD0084608B0F5
:1035A40010BD164B079302238DF8043000248DF8C8
:1035B40005408DF806408DF80740019B069321468F
:1035C40064F3000164F3410164F3820164F3C5010F
:1035D400012363F38811082363F3522164F3DE416A
:1035E40064F3DF71234606AA054808F096FD2046D9
:1035F400D5E701221A70D2E70020D0E794FD00003D
:10360400B8F700002DE9F041A6B000AF05460E461C
:103614001446AF4BFB6102233B7100237B71BB71EA
:10362400FB717A68BA61194663F3000163F34101DF
:1036340063F3820163F3C501012262F38811082256
:1036440062F3522163F3DE4163F3DF7107F1180281
:10365400A04808F062FDA04B9B6A13F0100F35D10F
:103664009D4B9B6A13F0080F53D19B4B9B6A13F03D
:10367400020F71D1984B9B6A13F0010F40F0E08068
:10368400954B9B6A13F0200F40F0FD80924B9B6A90
:1036940013F0100F01D1904B9B6A8F4B9B6A13F070
:1036A400200F04D08C4A536A23F4005353628A4A8D
:1036B400936A43F0FF0393620121284609F01AF943
:1036C400207000209837BD46BDE8F081834B7B63B2
:1036D40002233B7100237B71BB71FB717A683A63EF
:1036E400194663F3000163F3410163F3820163F359
:1036F400C501012262F38811082262F3522163F3A7
:10370400DE4163F3DF7107F13002724808F005FD12
:10371400A6E7734BFB6402233B7100237B71BB71EF
:10372400FB717A68BA64194663F3000163F34101DB
:1037340063F3820163F3C501012262F38811082255
:1037440062F3522163F3DE4163F3DF7107F1480250
:10375400604808F0E2FC88E7624B7B6602233B7119
:1037640000237B71BB71FB717A683A66194663F377
:10377400000163F3410163F3820163F3C501012294
:1037840062F38811082262F3522163F3DE4163F38A
:10379400DF7107F160024F4808F0BFFC4E4B586BD5
:1037A4009B6A13F0800F3FF465AFE84688B06B4620
:1037B40013F1100211D00C2152B18C46042903DDFF
:1037C400DFF824E1C3F814E0BCF1080F08DD9861C8
:1037D4000B2932DD4FF00C0C04E06FF00041EBE7F5
:1037E4006FF01B0C3AB10321397100217971B97161
:1037F400F9717868186100216FF300016FF34101DA
:103804006FF382016FF3C501012363F388110CF494
:103814007B7363F352216FF3DE416FF3DF71002397
:103824002C4808F07AFCC546002E3FF423AF2A4A00
:10383400936A23F0800393621CE76FF01B0CD1E7BB
:103844002A4BFB6702233B7100237B71BB71FB7125
:103854007A68BA67194663F3000163F3410163F3BD
:10386400820163F3C501012262F38811082262F325
:10387400522163F3DE4163F3DF7107F178021548E7
:1038840008F04BFCFCE61A4BC7F8943002233B715A
:1038940000237B71BB71FB717A68C7F890201946CD
:1038A40063F3000163F3410163F3820163F3C50130
:1038B400012262F38811082262F3522163F3DE418C
:1038C40063F3DF7107F19002024808F026FCDDE69D
:1038D400C0FD0000B8F7000000ED00E0D8FD0000D6
:1038E4000CFE000020FE000038FE000050FE000028
:1038F40070FE00002DE9F041ACB000AF05460E4665
:103904001446BC4BFB6102233B7100237B71BB71EA
:10391400FB717A68BA61194663F3000163F34101EC
:1039240063F3820163F3C501012262F38811082263
:1039340062F3522163F3DE4163F3DF7107F118028E
:10394400AD4808F0EAFBAD4B9B6A13F4805F2AD1C3
:10395400AA4B9B6A13F4006F48D1A84B9B6A13F4DB
:10396400007F66D1A54B9B6A13F4806F40F0D5802D
:10397400A24B9B6A13F4807F40F0F2809F4B9B6ABA
:1039840013F4005F40F011819C4A936A43F47F432F
:1039940093620121284608F0ADFF20700020B03763
:1039A400BD46BDE8F081964B7B6302233B71002347
:1039B4007B71BB71FB717A683A63194663F300014A
:1039C40063F3410163F3820163F3C501012262F3EE
:1039D4008811082262F3522163F3DE4163F3DF713D
:1039E40007F13002844808F098FBB1E7854BFB648B
:1039F40002233B7100237B71BB71FB717A68BA644B
:103A0400194663F3000163F3410163F3820163F335
:103A1400C501012262F38811082262F3522163F383
:103A2400DE4163F3DF7107F14802734808F075FB68
:103A340093E7754B7B6602233B7100237B71BB715B
:103A4400FB717A683A66194663F3000163F3410136
:103A540063F3820163F3C501012262F38811082232
:103A640062F3522163F3DE4163F3DF7107F1600215
:103A7400614808F052FB614B986B9B6A13F4004F4A
:103A84003FF470AFE84688B06B4613F1100211D0D2
:103A94000C2152B18C46042903DDDFF870E1C3F830
:103AA40014E0BCF1080F08DD98610B2932DD4FF0FA
:103AB4000C0C04E06FF00041EBE76FF01B0C3AB123
:103AC4000321397100217971B971F971786818612C
:103AD40000216FF300016FF341016FF382016FF373
:103AE400C501012363F388110CF47B7363F3522142
:103AF4006FF3DE416FF3DF7100233F4808F00DFBE5
:103B0400C546002E3FF42EAF3C4A936A23F400438B
:103B1400936227E76FF01B0CD1E73D4BFB67022351
:103B24003B7100237B71BB71FB717A68BA671946DC
:103B340063F3000163F3410163F3820163F3C5019D
:103B4400012262F38811082262F3522163F3DE41F9
:103B540063F3DF7107F17802274808F0DEFA07E71C
:103B64002C4BC7F8AC3002233B7100237B71BB7133
:103B7400FB717A68C7F8A820194663F3000163F360
:103B8400410163F3820163F3C501012262F38811E9
:103B9400082262F3522163F3DE4163F3DF7107F11C
:103BA400A802154808F0B9FAEEE61B4BC7F89430A2
:103BB40002233B7100237B71BB71FB717A68C7F8E8
:103BC4009020194663F3000163F3410163F382011A
:103BD40063F3C501012262F38811082262F35221C2
:103BE40063F3DE4163F3DF7107F19002024808F0EA
:103BF40094FAC9E6A0FE0000B8F7000000ED00E06A
:103C0400B8FE00000CFE0000CCFE0000E8FE000040
:103C140000FF00001CFF000070FE000010B5B2B0F1
:103C2400AF4B079302238DF8043000238DF8053041
:103C34008DF806308DF80730019A0692194663F321
:103C4400000163F3410163F3820163F3C5010122BF
:103C540062F38811082262F3522163F3DE4163F3B5
:103C6400DF7106AA9F4808F058FA9F4B9B6A13F02D
:103C7400007F2BD19C4B9B6A13F0807F4CD19A4BD5
:103C84009C6A14F480146DD1974B9B6A13F4002F33
:103C940040F08E80944B9B6A13F4802F40F0AE80EA
:103CA400914B9B6A13F4003F40F0CE808E4B9B6A8D
:103CB40013F4803F40F0EE808B4A936A6FEA03432B
:103CC4006FEA13439362204632B010BD874B0D93C5
:103CD40002238DF8043000238DF805308DF806306A
:103CE4008DF80730019A0C92194663F3000163F3CF
:103CF400410163F3820163F3C501012262F3881178
:103D0400082262F3522163F3DE4163F3DF710CAAEC
:103D1400744808F002FAADE7754B139302238DF84B
:103D2400043000238DF805308DF806308DF8073007
:103D3400019A1292194663F3000163F3410163F39C
:103D4400820163F3C501012262F38811082262F340
:103D5400522163F3DE4163F3DF7112AA614808F074
:103D6400DCF98CE7634B199302248DF8044000239B
:103D74008DF805308DF806308DF80730019A1892C9
:103D8400194663F3000163F3410163F3820163F3B2
:103D9400C501012262F38811082262F3522163F300
:103DA400DE4163F3DF7118AA4E4808F0B6F96BE7F9
:103DB400514B1F9302238DF8043000238DF80530F6
:103DC4008DF806308DF80730019A1E92194663F378
:103DD400000163F3410163F3820163F3C50101222E
:103DE40062F38811082262F3522163F3DE4163F324
:103DF400DF711EAA3B4808F090F94BE73F4B25932F
:103E040002238DF8043000238DF805308DF8063038
:103E14008DF80730019A2492194663F3000163F385
:103E2400410163F3820163F3C501012262F3881146
:103E3400082262F3522163F3DE4163F3DF7124AAA3
:103E4400284808F06AF92BE72D4B2B9302238DF8B1
:103E5400043000238DF805308DF806308DF80730D6
:103E6400019A2A92194663F3000163F3410163F353
:103E7400820163F3C501012262F38811082262F30F
:103E8400522163F3DE4163F3DF712AAA154808F077
:103E940044F90BE71B4B319302238DF804300023C4
:103EA4008DF805308DF806308DF80730019A309280
:103EB400194663F3000163F3410163F3820163F381
:103EC400C501012262F38811082262F3522163F3CF
:103ED400DE4163F3DF7130AA024808F01EF9EBE615
:103EE40034FF0000B8F7000000ED00E04CFF0000D4
:103EF40060FF00007CFF0000A8FF0000C8FF000076
:103F0400F0FF00000C000100F0B59BB000AF0646C6
:103F14000D46864BFB6102233B7100247C71BC710E
:103F2400FC717B68BB61214664F3000164F34101C9
:103F340064F3820164F3C501012363F38811082348
:103F440063F3522164F3DE4164F3DF71234607F126
:103F54001802774808F0E1F82C70764BDC6A14F00C
:103F640002040CD1734BDB6A002B2CDB714BDC6A33
:103F740014F080444AD120466C37BD46F0BD6E4BE8
:103F84007B6602233B7100247C71BC71FC717B68ED
:103F94003B66214664F3000164F3410164F382014A
:103FA40064F3C501012363F38811082363F35221E9
:103FB40064F3DE4164F3DF71234607F160025C4879
:103FC40008F0ABF8D7E75D4BFB6402233B71002399
:103FD4007B71BB71FB717A68BA64194663F30001A3
:103FE40063F3410163F3820163F3C501012262F3C8
:103FF4008811082262F3522163F3DE4163F3DF7117
:1040040007F148024A4808F088F8B4E74C4B7B6350
:1040140002233B7100237B71BB71FB717A683A63A5
:10402400194663F3000163F3410163F3820163F30F
:10403400C501012262F38811082262F3522163F35D
:10404400DE4163F3DF7107F13002394808F065F8A7
:10405400B36933F8022C4DF602739A4214D0354BEF
:104064009B6A13F0FF0F52D1324B9C6A14F47F44C5
:1040740054D1304B9B6AB3F5803FFFF47CAF30469C
:10408400FFF7CCFD044676E734686D4688B06B468E
:1040940013F110020FD00C214AB10846042903DDA4
:1040A400DFF8A0C0C3F814C0082807DD9C610B2901
:1040B4002ADD0C2404E06FF00041EDE76FF01B04EF
:1040C4003AB10321397100217971B971F9717868B4
:1040D400186100216FF300016FF341016FF3820156
:1040E4006FF3C501012363F3881104F47B7464F353
:1040F40052216FF3DE416FF3DF7100230C4808F0A7
:104104000CF8AD46346836E76FF01B04D8E72A464E
:1041140001213046FFF776FA04462CE72A460121AE
:104124003046FFF7E7FB044625E700BF38000100EF
:10413400B8F7000000ED00E0500001007400010039
:1041440084000100A400010000B589B000230B70B5
:10415400134A079202228DF804208DF805308DF859
:1041640006308DF80730019A0692194663F3000170
:1041740063F3410163F3820163F3C501012262F336
:104184008811082262F3522163F3DE4163F3DF7185
:1041940006AA044807F0C1FF09B05DF804FB00BF9C
:1041A400C0000100B8F70000B0B582B000AF0F291D
:1041B4004ADC304C103902233B718AB06B4613F150
:1041C400100243D04FF0110C002A42D06046BCF1DB
:1041D400040F01DD284D5D614FF0020E87F800E009
:1041E400082800DD9C610C2800DDD96103F1200161
:1041F400002088B3BCF1100F38DD4FF0110C42B130
:104204000421397100217971B9710121F97178683A
:10421400186100216FF300016FF341016FF3820114
:104224006FF3C501012363F38811CCF3090C6CF31C
:1042340052216FF3DE416FF3DF7100230F4807F063
:104244006CFF0837BD46B0BD0D4CB3E76FF0004CB2
:10425400BAE702213970CDE700F1080404EB070E38
:104264001EF808EC01F801EB0130C2E76FF01B0CFB
:10427400C5E700BFE400010018010100B8F7000021
:10428400FC00010030B58BB01A4B5C68C4F3080421
:10429400002383F31188BFF36F8F0DF12603FFF71B
:1042A4006DF905460DF12702214608F025FB9DF81E
:1042B40027300BB10BB030BD04462022294601A89B
:1042C40008F0FFFB9DF826304BB1089BC3F30802AE
:1042D4005AB96FEA53236FEA4323089305E0089B16
:1042E40023F4FF7323F00103089301A9204608F087
:1042F400CEFADFE700ED00E0044B5A6942F0100209
:104304005A615A6942F480625A61704700ED00E0D4
:10431400EFF30880EFF3098101B57246FFF7B2FFAE
:1043240001BD00BF002207E003F1604303F56143D0
:10433400202183F800130132442A09DC53B2002BF4
:10434400F2DA03F00F030349194420230B76F2E752
:10435400704700BFFCEC00E0002015490870002005
:1043640080F31488BFF36F8F002080F30A8880F3F2
:104374000B88FDF749FB00200E490860BFF34F8FFF
:104384000D4880F3088800F041F8202080F311885C
:104394000A484FF40061401880F30988EFF3148051
:1043A4000221084380F31488BFF36F8FFFF70AF8E4
:1043B4002C1D002094ED00E07031002030240020FA
:1043C400BFF34F8F0549CA6802F4E062044B1343FC
:1043D400CB60BFF34F8F00BFFDE700BF00ED00E0EF
:1043E4000400FA05084BD3F89000C0F3072000231B
:1043F40006E0054AC2F898300021C2F8A010013343
:104404008342F6DB704700BF00ED00E010B572B6E2
:10441400002484F31388FFF7E5FF234608E003F143
:1044240020010E4A4FF0FF3042F821000133DBB285
:104434000F2BF4D9002308E003F16001074A4FF081
:10444400FF3042F821000133DBB20F2BF4D962B6FE
:10445400BFF34F8FBFF36F8F10BD00BF00E100E0CB
:1044640008B50A4B9B68834202D005F091FF08BD52
:10447400EFF30583002BF8D0054B5A6842F08052C5
:104484005A605A6A22F400425A62EEE7081B00207E
:1044940000ED00E010B584B00A4C23460A4A01211D
:1044A4000A4808F0B1FA0023019302930393084BDE
:1044B4000193E41A0294012101A808F0A9FA04B0B6
:1044C40010BD00BF00000720000000202C010100E7
:1044D40000030020024B034AC3F8C020704700BF0A
:1044E40000ED00E0AAFF4400034BC3F89800C3F8B2
:1044F4009C10C3F8A020704700ED00E00E4BC3F8F9
:104504009800C3F89800D3F89C000A7A60F3040278
:104514000A72D3F8A020C2F34202087A62F3471069
:104524000872D3F89C2022F01F020A60D3F8A0304E
:1045340023F01F03CB60704700ED00E070B5054623
:104544000E46002400E00134A6421EDD04EB4403C1
:104554009A0005EB830359680029F4D0A85808F0A1
:1045640023FA04EB84030B4A42F8230010F1160FDC
:104574000CD0094B1B78984209DA04EB840302EB54
:1045840083010431FFF7BAFFDDE7002070BD6FF04F
:104594001500FBE72C140020281D0020F0B583B083
:1045A40000AF0446072805D808F0D8F920460C3790
:1045B400BD46F0BD6D4688B06B4613F1100231D094
:1045C4000C213AB10846042901DD194E5E61082820
:1045D40000DD9C610B2928DD0C243AB103213971DB
:1045E40000217971B971F9717868186100216FF34C
:1045F40000016FF341016FF382016FF3C5010123E1
:1046040063F3881104F47B7464F352216FF3DE4185
:104614006FF3DF710023074807F07FFDAD466FF0AD
:104624001500C4E76FF00041CBE76FF01B04D4E73B
:104634003C010100B0F700002DE9F04F89B000AF54
:104644008246B9607B6014464FF00008B5E06D46C1
:1046540088B06B4613F1100232D00C2142B10846E7
:10466400042901DD944C5C61082801DDC3F818803D
:104674000B2928DD0C243AB1032139740021797403
:10468400B974F9743869186100216FF300016FF38C
:1046940041016FF382016FF3C501012363F38811B4
:1046A40004F47B7464F352216FF3DE416FF3DF7122
:1046B4000023824807F031FDAD466FF015043CE05D
:1046C4006FF00041CAE76FF01B04D4E76D4688B071
:1046D4006B4613F1100235D00C213AB10846042977
:1046E40001DD774C5C61082800DD9E610B292CDD1F
:1046F4000C243AB10321397400217974B974F97422
:104704003869186100216FF300016FF341016FF301
:1047140082016FF3C501012363F3881104F47B73F1
:1047240063F352216FF3DE416FF3DF7100236348BB
:1047340007F0F3FCAD466FF0150420462437BD4660
:10474400BDE8F08F6FF00041C7E76FF01B04D0E7BE
:10475400814568D12946F0B208F037F92BE0594A6F
:10476400C2F89860D2F89C3003F01F0321F01F01B7
:104774000B43C2F89C302946E0B208F026F90446FF
:1047840010F1160FD9D0013415E0013B4D49C1F8A1
:104794009860D1F8A02002F01F0223F01F031343F6
:1047A400C1F8A0302946E0B208F00FF9044610F130
:1047B400160FC2D0013408F10108BB689845BCDA71
:1047C40008EB48054FEA850B0AEB85056E68002E59
:1047D400F1D07B682BB1284608F0D4F800283FF4C8
:1047E40036AF31465AF80B0008F0DEF8064610F1F1
:1047F400160F3FF46BAF84427FF768AF314BC3F8B9
:104804009800D3F89C2022F01F02C3F89800D3F834
:10481400A03043F01F095AF80B3069681944481E48
:10482400F860934294D0934299D0FA689145ACD001
:10483400013B2449C1F89860D1F8A02002F01F027E
:1048440023F01F031343C1F8A0302946E0B208F057
:10485400BCF8044610F1160F3FF46FAF0130194B4A
:10486400C3F89860D3F89C103A7E61F304023A7658
:10487400D3F8A030C3F34203D2B263F347123A76BB
:104884005AF80B306A6813443B6123F01F03FA683B
:10489400A9EB02094B44013B23F01F03FB6107F121
:1048A4001001C0B2FFF77AFE044610F1160F3FF470
:1048B40044AF01347FE700BF64010100B0F700009A
:1048C4008801010000ED00E010B5034C01232278BB
:1048D400FFF7B2FE207010BD281D0020044B0522F6
:1048E400C3F89420BFF34F8FBFF36F8F704700BF9F
:1048F40000ED00E0BFF35F8F024B0022C3F8942069
:10490400704700BF00ED00E038B50E4B1D68082D60
:1049140015D8FFF7EFFFFFF7DDFD002407E0094B93
:10492400596801EB0411204608F018F80134A54237
:10493400F5D8054B1D70FFF7D1FF002038BD4FF0AF
:10494400FF30FBE7AC010100281D0020014B18607B
:10495400704700BF70000020044B1022C3F84024AD
:104964004FF050230022C3F8142670470030005043
:1049740000487047CC140020034BC01A8010034B2E
:1049840003FB00F0704700BF54140020B76DDBB682
:1049940038B505460C46FFF7EFFF014640220348B1
:1049A40008F095F901462846A04738BD08F40000F0
:1049B40030B583B005460C46FFF7DEFF01464023C1
:1049C40000932346054A064808F09BF9011E01DBC3
:1049D40003B030BD2846A047FAE700BF4FCD000022
:1049E40008F4000008B5052815D8DFE800F0031A1C
:1049F4001414151000210D4808F0F2F8836813F020
:104A0400070F08D10021094808F04FF903E00221FB
:104A1400064808F04AF908BD0321044808F045F99E
:104A2400F9E70121014808F040F9F4E708F400002F
:104A340010B582B04FF02003EFF3118483F3128892
:104A4400BFF36F8F144A136843F00201116013F02F
:104A5400010F09D1002384F31188BFF36F8FB3B919
:104A640008F07BF902B010BD0DF1070201214FF0EF
:104A7400502008F07BF89DF80730012B01D000236B
:104A8400E9E7FFF775FF08F0FDF80123E3E70021EC
:104A9400024808F00AF9E5E7F414002008F40000DD
:104AA40008B5084BD3E8EF2F22F00201C3E8E01F5A
:104AB4000028F7D112F0010F00D008BD08F061F909
:104AC400FBE700BFF414002070B582B0054601284E
:104AD40007D14FF05023D3F81C3403F00303022B07
:104AE40037D00AF077F8044610B92B4B1B787BB902
:104AF4004FF02003EFF3118683F31288BFF36F8F17
:104B0400012494B94FF050230222C3F808230CE087
:104B14000026F6E7FCB13046FEF7DEFA4FF05023EC
:104B2400D3F81835DBB2012B19D00DF1070200219F
:104B34004FF0502008F01AF80028EBD09DF8073009
:104B4400022B01D0012DE5D104B386F31188BFF304
:104B54006F8F02B070BD012008F027F9DEE74FF037
:104B64005023D3F80431002BDFD04FF05023002220
:104B7400C3F80421D3F804210222C3F81825074AF4
:104B84002021C2F8801101229A60CEE74FF0502311
:104B94000222C3F80423DCE72C1D002000E100E01E
:104BA40000B585B0CDF800D0CDF804D00023029331
:104BB400012303936B46074A08F0BFF8002805DB7E
:104BC4004FF480420023684604F0EAFE05B05DF825
:104BD40004FB00BFDBCD000070B5064600220121B6
:104BE400052007F070FE114802F06AFA104B984253
:104BF40019D108F0FAFF0024032C12D821463046BC
:104C040007F0EEFF05462146304607F0F6FF094956
:104C140006F0A4F9002805DB0123AB601C44E4B2D0
:104C2400EAE7002070BD6FF00400FBE7E9490000EB
:104C34000000AD0BF801010010B504460E4B012134
:104C4400D3E8EF2FC3E8E01F0028F9D11AB1631E9F
:104C5400012B0DD910BD094807F0CFFF08490023E7
:104C64004B608B60CB6001238B6006F094F9EEE718
:104C74002046FFF729FFEDE75014002008F4000058
:104C84004014002010B5044C2046FCF73BF92046A4
:104C9400FFF75CFE002010BDA14C000070B582B08F
:104CA40006468DF80700022504F0BCF901220DF137
:104CB4000701002004F070F9044604F0BFF93CB980
:104CC400084B1B785BB13DB108F0A0F8013DEBE760
:104CD400044B01221A7002E0024B00221A70304683
:104CE40002B070BD291D002028B1012801D103485C
:104CF4007047002070470248704700BF20F400004E
:104D040038F40000F0B585B00E46194643681B7BA5
:104D140006F01F0545EA4315B2F5001F22D00746E9
:104D24001446002301930293104608F048F98DF8C5
:104D340004007B689968F14011F0010F02D1B4F1CD
:104D4400A07F14D0002301AA1946284602F0B4FC1F
:104D54001A4B98422FD10121284602F011FE00205F
:104D640005B0F0BD284602F03DFE0020F8E705F04E
:104D74001F036A09012A12D0114A803352F82330E2
:104D840013F0010FDED10DF10F01284602F09CFD56
:104D94000C4B984205D00DF10F030293D2E70A4A57
:104DA400EBE70DF10F0002F0E3FD044B9842F2D063
:104DB4006FF00B00D4E76FF01500D1E70000AD0BE6
:104DC400002584500400AD0B002884502DE9F041E7
:104DD40086B00E461446D0F8048098F80C3001F0E2
:104DE4001F0545EA43150DF11701284602F06CFD35
:104DF400074614F4403F39D00021039104910B4637
:104E040003AA284602F058FC324B98425FD19F42D5
:104E14003CD014F4003F47D00DF10301204608F0C4
:104E24005BF8074648BB9DF803308DF8043014F452
:104E3400803F0CBF012300238DF80530204608F085
:104E44008EF88DF8060014F4002F24D0D8F804202E
:104E54000123B3409360002201A9284602F0C2FC5A
:104E64001C4B984209D06FF0150706E0284602F063
:104E7400DBFD184B9F4204D00027384606B0BDE83E
:104E8400F0819DF8170002F06BFDF5E79DF817001F
:104E940002F066FDBDE714F4802FDCD0D8F80420BE
:104EA4000123B340D360D6E7204608F058F88DF8C4
:104EB400080000231A4602A9284602F0FDFB054B10
:104EC400984201D10027D8E76FF01507D5E76FF0B6
:104ED4001507D2E70000AD0B08B502F037FD08B1A5
:104EE400002008BD02F008FD084B98420AD10021B9
:104EF400074802F0E3FC002205210D2007F0E3FC43
:104F04000020EEE76FF00400EBE700BF0000AD0BFC
:104F1400FBCF000070B544682368D3F80855D3F874
:104F24000C65204603F07EFB3146284603F0B2FBB5
:104F340005460021206A08F06DF8204603F062FB64
:104F4400034B9D4201D1002070BD6FF00F00FBE7C1
:104F54000000AD0B436811F0010F48D1C1F34201C9
:104F6400022936D003293BD001292BD000B589B0C2
:104F7400204B079302238DF8043000238DF805306D
:104F84008DF806308DF80730019A0692194663F3BE
:104F9400000163F3410163F3820163F3C50101225C
:104FA40062F38811082262F3522163F3DE4163F352
:104FB400DF7106AA104807F0B0F86FF0150009B0C9
:104FC4005DF804FB1B684FF0CC72C3F82425002065
:104FD40070471B684FF0C862C3F82425002070474F
:104FE4001B684FF07F62C3F82425002070476FF0E0
:104FF40015007047F402010090F700002DE9F04F0E
:1050040091B000AF83468946924601690C46F96027
:1050140042687A61486AB861128B7A600025FD6241
:105024003D637D63BD63FD6387F82D304FF0FF3230
:105034004FF0FF33084604F0B3FC04F110031846A4
:10504400BB600022002304F0ABFC2E462C463D61DD
:10505400C7F800B04BE0002C00F0E6800022FA61B3
:1050640020466A68A118D7F804C0614563D813F0D4
:10507400010F00F0D2806B6823449CB2FB69002BC3
:1050840034D1002C40F0548159F80B30BB636B6869
:105094003B632B7A03F0010287F82C2013F0020FF4
:1050A40000F04A81002207F12C01786903F0D8FA54
:1050B400A84B984240F042814FF480420023B868E4
:1050C40004F06EFC3861002840F04C81FB681B6AD8
:1050D400A04A934240F08E812B7A13F0010F04D042
:1050E400BB6BBA699A4200F0CD810024464656450E
:1050F40080F0DE8106EB46054FEA850B09EB85055A
:105104002B7A13F0080F40F0D08106F10108D04546
:10511400A1D213F0020F9ED108EB480209EB8202E0
:10512400127A12F0040F96D15A4012F0010F92D164
:105134000122FA6194E7D7F800B0DBF800006D466D
:10514400052387F828308CB06B4613F110064FD036
:105154004FF0190C002E4ED06146BCF1040F03DD54
:10516400DFF8F4E1C3F814E0082900DD9C610C29A0
:1051740000DDDA61102901DD7A681A62052287F8F8
:105184002420142900DD586203F128010020B0B363
:10519400BCF1180F3EDD192266B1062187F82810EC
:1051A400002187F8291087F82A10012187F82B108D
:1051B400B86A186100216FF300016FF341016FF3C6
:1051C40082016FF3C501012363F38811C2F309025D
:1051D40062F352216FF3DE416FF3DF710023324635
:1051E4005E4806F09AFFAD466FF01B033B615FE13A
:1051F4006FF0004CAEE7052287F82420C8E700F1E1
:10520400200207F12004224412F81C2C01F8012B7F
:105214000130BCE76FF01B02BEE759F80B10BB6905
:10522400184407F04EFC26E713F0010F7AD159F821
:105234000B1001F06043B3F1005F76D06A687B69BC
:105244005B8B9A4206D8B86907F03BFCAC88002314
:10525400FB6113E7D7F800B0DBF800606C4603236A
:1052640087F828308AB06B4613F1100545D0112019
:10527400002D45D00146042803DDDFF8E4C0C3F85F
:1052840014C0082900DD9A61032287F824200C2920
:1052940000DDDE6103F120010022AAB310283EDD07
:1052A400112265B1042187F82810002187F82910FC
:1052B40087F82A10012187F82B10B86A1861002199
:1052C4006FF300016FF341016FF382016FF3C501C6
:1052D400012363F38811C2F3090363F352216FF3CB
:1052E400DE416FF3DF7100232A461C4806F015FFE8
:1052F400A5466FF015033B61DAE06FF00040B7E7B5
:10530400032287F82420C9E702F1200607F1200CC4
:10531400664416F81C6C01F8016B0132BDE76FF0AE
:105324001B02BEE70023FB61A8E60023FB61A5E6A0
:10533400BB69BB633C63ACE62022B4E60B33984202
:1053440003D06FF004033B61B2E06FF00F033B61E5
:10535400AEE000BF0000AD0B0803010090F70000B1
:1053640098030100D7F800B06C4688B06B4613F17F
:10537400100239D00C213AB10846042901DD504D00
:105384005D61082800DD9E610B2930DD0C255AB1D2
:10539400032187F82810002187F8291087F82A109C
:1053A40087F82B10B86A186100216FF300016FF3BE
:1053B40041016FF382016FF3C501012363F3881187
:1053C40005F47B7565F352216FF3DE416FF3DF71F2
:1053D40000233C4806F0A1FEA5465846FFF79AFD77
:1053E4006FF004033B6163E06FF00041C3E76FF0CB
:1053F4001B05CCE76C4688B0694611F110023BD01E
:10540400102062B10546042803DDDFF8BCC0C1F8F2
:1054140014C0082D00DD8B610C2D00DDCE610F283A
:105424002DDD10235AB1042087F82800002087F8C6
:10543400290087F82A0087F82B00B86A0861002140
:105444006FF300016FF341016FF382016FF3C50144
:10545400012060F3881103F47D7363F352216FF329
:10546400DE416FF3DF710023164806F056FEA546B1
:105474006FF004033B611BE06FF00040C1E76FF085
:105484001B03CFE7154607E0A41AA4B2291959F85B
:10549400000007F016FB013E06EB4603980009EBFB
:1054A40083035A689442EFD21FE66FF085033B6191
:1054B400F86804F051FA38694437BD46BDE8F08F06
:1054C4000004010090F700002C04010008B50378E3
:1054D400012B0CD0022B0DD013B1084B0B6201E051
:1054E400074B0B6201F1100004F036FA08BD054BBE
:1054F4000B62F7E7044B0B62F4E700BF0100AD0B4E
:105504000000AD0B0100AE0B0200AE0BF0B583B092
:1055140000AF044645680669EB6998470021286A8C
:1055240007F078FD00280DDB3346324A05F1080107
:10553400284603F01DF8304B984206D1284603F064
:1055440061F800200C37BD46F0BD26686C46022386
:105554003B7188B06B4613F1100238D00D25CAB3E5
:105564002946042D01DD2548586102203870082998
:1055740000DD9E6103F11C01002070B30C2D35DDAC
:105584000D2542B10321397100217971B9710121CD
:10559400F9717868186100216FF300016FF341011C
:1055A4006FF382016FF3C501012363F38811C5F31F
:1055B400090363F352216FF3DE416FF3DF710023BC
:1055C4000F4806F0AAFDA5466FF00400BAE76FF095
:1055D4000045C4E702213970D0E700F108063E44D3
:1055E40016F8086C01F8016B0130C6E76FF01B0573
:1055F400C7E700BFD15400000000AD0B5404010004
:1056040090F70000194B984217D9194B984217D9B3
:10561400184B984217D9184B984217D9174B9842F0
:1056240017D9174B984217D3164B984217D3164BDA
:10563400984217D24FF0206070474FF000707047C7
:105644004FF0806070474FF0006070474FF080501B
:1056540070474FF0005070474FF0804070474FF054
:10566400004070474FF0A050704700BF8FD0030038
:105674001FA107003F420F007F841E00FF083D006A
:1056840000127A000024F4000048E8012DE9F043F8
:10569400A1B000AF0C4605694668D6F8089095F8A5
:1056A4005D80B8F1000F03D02B688B4200F0998124
:1056B400A38813F4006F59D113F0010F7BD113F0B9
:1056C400080F40F0CC80C3F34513082B40F0EC8066
:1056D4002268C54B9A4240F20C81C44B994508D9C3
:1056E4004FF05023D3F8583513F0030F01D0DFF8EF
:1056F400FC9207F1080C06F10C0EBEE80F00ACE8B2
:105704000F009EE803008CE803002068484528BF8A
:105714004846FFF777FF3861A38813F0020F00F0C3
:105724000D8113F0040F00F00E8103233B75A38851
:1057340013F0100F00F00B8101237B75B8F1000FFB
:1057440040F007812B46AA4A07F10801304602F0CF
:1057540073FBA84B984240F00381012385F85D3028
:105764002C6000208437BD46BDE8F083A24BFB6764
:1057740002233B7100237B71BB71FB717A68BA67AA
:10578400194663F3000163F3410163F3820163F398
:10579400C501012262F38811082262F3522163F3E6
:1057A400DE4163F3DF7107F17802944806F0B5FC3B
:1057B4006FF08500D6E701686C4602233B7188B020
:1057C4006B4613F1100238D00D25CAB32846042DB8
:1057D40001DD8B4E5E6102263E70082800DD996172
:1057E40003F11C01002070B30C2D35DD0D2542B1F1
:1057F4000321397100217971B9710121F971786836
:10580400186100216FF300016FF341016FF382010E
:105814006FF3C501012363F38811C5F3090363F32F
:1058240052216FF3DE416FF3DF710023734806F0FA
:1058340074FCA5466FF0150094E76FF00045C4E7CB
:1058440002213970D0E700F180063E4416F8806CDE
:1058540001F8016B0130C6E76FF01B05C7E7694B20
:105864007B6602233B7100237B71BB71FB717A68F9
:105874003A66194663F3000163F3410163F382015D
:1058840063F3C501012262F38811082262F35221F5
:1058940063F3DE4163F3DF7107F16002574806F0FA
:1058A4003CFC6FF015005DE7574BFB6402233B7132
:1058B40000237B71BB71FB717A68BA64194663F388
:1058C400000163F3410163F3820163F3C501012223
:1058D40062F38811082262F3522163F3DE4163F319
:1058E400DF7107F14802454806F017FC6FF0150018
:1058F40038E7464B7B6302233B7100237B71BB710A
:10590400FB717A683A63194663F3000163F341015A
:1059140063F3820163F3C501012262F38811082253
:1059240062F3522163F3DE4163F3DF7107F1300266
:10593400324806F0F2FB6FF0150013E713F0040F82
:1059440003D00123F2E60223F0E60023EEE600236F
:10595400F3E6304602F0E0FA002385F85D30F1E624
:105964006D4688B06B4613F110020DD00C213AB18C
:105974000C46042901DD264E5E61082C07DD986182
:105984000B292BDD0C2404E06FF00041EFE76FF0EE
:105994001B043AB10321397100217971B971F9718C
:1059A4007868186100216FF300016FF341016FF310
:1059B40082016FF3C501012363F3881104F47B733F
:1059C40063F352216FF3DE416FF3DF7100230B4861
:1059D40006F0A3FBAD466FF00400C3E66FF01B04B2
:1059E400D7E70020BEE600BF47E801000024F4002A
:1059F400795B00000000AD0BE8040100D8F700005B
:105A0400040501002805010048050100780501008E
:105A1400AC05010030B589B00446036D826C934235
:105A240038BF13464FF4FA5202FB03F3054655F808
:105A3400202B1268B3FBF2F3C833590CDB0340F29A
:105A4400E73298184FF47A724FF0000341F10001E5
:105A5400FAF77EFB02460B46284603F0A1FF10B975
:105A6400206B09B030BD144B079302238DF804302A
:105A740000238DF805308DF806308DF80730019A33
:105A84000692194663F3000163F3410163F3820153
:105A940063F3C501012262F38811082262F35221E3
:105AA40063F3DE4163F3DF7106AA044806F035FBB5
:105AB4006FF07300D5E700BFD4050100D8F70000EC
:105AC40070B584B004694668A36C002B43D0256D7F
:105AD400002D42D09D4228BF1D46002D45D0616C4B
