:10000000B84A0020295E00004F110100E15D0000A8
:10001000E15D0000E15D0000E15D0000E15D0000E8
:10002000000000000000000000000000894E0000F9
:10003000E15D0000000000002D4E0000E15D0000C9
:10004000194F0000194F0000194F0000194F000010
:10005000194F0000194F0000194F0000194F000000
:10006000194F0000194F0000194F0000194F0000F0
:10007000194F0000194F0000194F0000194F0000E0
:10008000194F0000194F0000194F0000194F0000D0
:10009000194F0000194F0000194F0000194F0000C0
:1000A000194F0000194F0000194F0000194F0000B0
:1000B000194F0000194F0000194F0000194F0000A0
:1000C000194F0000194F0000194F0000194F000090
:1000D000194F0000194F0000194F0000194F000080
:1000E000194F0000194F0000194F0000194F000070
:1000F000194F0000194F0000194F0000194F000060
:10010000194F0000194F0000194F0000194F00004F
:10011000194F0000194F0000194F0000194F00003F
:10012000194F0000194F0000194F0000194F00002F
:10013000194F0000194F0000194F0000194F00001F
:10014000194F0000194F0000194F0000194F00000F
:04015000194F000043
:1001540053B94AB9002908BF00281CBF4FF0FF312A
:100164004FF0FF3000F00CB8ADF1080C6DE904CE8F
:1001740000F008F8DDF804E0DDE9022304B070477C
:10018400704700BF2DE9F04786468C460846089E16
:10019400154674461946002B40F0C1808542B2FAD8
:1001A40082F245D94AB1C2F1200300FA02FC95401B
:1001B40094402EFA03F343EA0C0C4FEA154EA8B20E
:1001C400230CBCFBFEF80EFB18CC08FB00F943EA39
:1001D4000C43994528D9EB1808F1FF3704D2994507
:1001E40002D9A8F102072B44A3EB0903A4B2B3FB81
:1001F400FEFC0EFB1C330CFB00F044EA0344A0425B
:1002040014D92C190CF1FF3304D2A04202D9ACF159
:1002140002032C44241A43EA07401EB1D4400023AD
:1002240034607360BDE8F0874746DDE76346F1E775
:1002340092BB431B01214FEA154EAFB2200CB3FB16
:10024400FEFC0EFB1C330CFB07F840EA0343984505
:1002540061D9EB180CF1FF3004D2984502D9ACF106
:1002640002002B44A3EB0803A4B2B3FBFEFC0EFB79
:100274001C330CFB07F744EA0344A7424DD92C195D
:100284000CF1FF3304D2A74202D9ACF102032C448F
:10029400E41B43EA0040C0E7C2F1200395409440C8
:1002A40020FA03F12EFA03F34FEA154E9040AFB251
:1002B4000343B1FBFEFC0EFB1C10190C0CFB07F8EE
:1002C40041EA0041884522D969180CF1FF3004D273
:1002D400884502D9ACF102002944A1EB08019BB284
:1002E400B1FBFEFC0EFB1C110CFB07F743EA0143B8
:1002F4009F420ED9EB180CF1FF3104D29F4202D970
:10030400ACF102012B44DB1B41EA004193E7604658
:10031400E3E76146F7E76046A4E76346B8E783424C
:1003240006D916B9002108467CE7C6E900E0F9E7DA
:10033400B3FA83F78FB9834201D3724508D8BEEB71
:10034400020460EB030301209C461EB9002169E707
:100354003846FAE7C6E9004CF8E7C7F1200CBB4081
:100364000EFA07F522FA0CF42EFA0CF1BA401C43EB
:1003740020FA0CF3B8404FEA144901431FFA84FEF3
:10038400B3FBF9F809FB18300B0C08FB0EFA43EA2F
:1003940000439A4540D9E31808F1FF3004D29A4546
:1003A40002D9A8F102002344A3EB0A0389B2B3FBE8
:1003B400F9F809FB183308FB0EFE41EA03418E45A8
:1003C4002CD9611808F1FF3304D28E4502D9A8F163
:1003D4000203214443EA0040A1EB0E01A0FB029872
:1003E4004145CE46434602D306D14D4504D2013899
:1003F400B9EB020E68EB0403002EA7D0B5EB0E0296
:1004040061EB030101FA0CFC22FA07F3F9404CEA10
:100414000303C6E9003199E74046C5E74346D9E7F7
:1004240008B50A460146034810F076FF02480CF06E
:100434005DFD08BDD0190020E002002008B5024887
:100444000CF054FD08BD00BFE00200202DE9F04F80
:10045400AFB000AFBA49BB480FF0BFFCBA4B7B62E8
:1004640002233B7100237B71BB71FB717A683A6292
:10047400194663F3000163F3410163F3820163F3FB
:10048400C501032262F38811082262F3522163F347
:10049400DE4163F3DF7107F12002AC4803F0E2F8B8
:1004A400AB4803F097FCB0F1000803DA18F1780FB9
:1004B40040F08A80A74A07F10801A54803F0EEFC42
:1004C400B0F10008C0F2A380A34B7B654FF0020B90
:1004D40087F804B04FF0000887F8058087F8068095
:1004E40087F807807B683B65414668F3000168F341
:1004F400410168F3820168F3C5014FF0030A6AF30E
:1005040088114FF0080969F3522168F3DE4168F35A
:10051400DF71434607F150028C4803F0A3F88F4B78
:10052400FB6687F804B087F8058087F8068087F8AB
:1005340007807B68BB66414668F3000168F34101AC
:1005440068F3820168F3C5016AF3881169F35221E3
:1005540068F3DE4168F3DF71434607F168027B48C4
:1005640003F080F87E4BC7F8843087F804B087F82E
:10057400058087F8068087F807807B68C7F8803095
:10058400414668F3000168F3410168F3820168F3AE
:10059400C5016AF3881169F3522168F3DE4168F3F7
:1005A400DF71434607F18002684803F05BF8DFF827
:1005B400B4816D49404610F05AFE404610F07BFE6F
:1005C400013048F8040C05E15F4BFB6302233B71E7
:1005D40000237B71BB71FB717A68BA63194663F3BC
:1005E400000163F3410163F3820163F3C501032254
:1005F40062F38811082262F3522163F3DE4163F34C
:10060400DF7107F13802514803F02CF823E0574B0F
:10061400C7F8B43002233B7100237B71BB71FB71BB
:100624007A68C7F8B020194663F3000163F3410107
:1006340063F3820163F3C501032262F38811082284
:1006440062F3522163F3DE4163F3DF7107F1B00219
:100654003E4803F007F84046BC37BD46BDE8F08F7E
:100664006FF00040C7E00146042803DDDFF800C155
:10067400C3F814C04FF0020C87F800C0082901DD4C
:100684003849996103F11C014FF0000CBCF1000FD3
:1006940040F0B6800CF1B80EBE441EF8B8EC01F878
:1006A40001EB0CF1010CF1E76FF01B01ACE0314BF5
:1006B400C7F89C3002223A7100237B71BB71FB7135
:1006C4007968C7F8981063F3000663F3410663F38F
:1006D400820663F3C50662F38816082262F3522683
:1006E40063F3DE4663F3DF7607F198023146174879
:1006F40002F0B8FF6EE06FF00040B6E00146042857
:1007040003DDDFF874C0C3F814C04FF0020C87F89F
:1007140000C0082901DD1949996103F11C014FF05A
:10072400000CBCF1000F40F0A5800CF1B80EBE44E3
:100734001EF8B8EC01F801EB0CF1010CF1E700BF75
:10074400983B0100B03B0100D03B0100743A01002A
:1007540064370100000000201C3C0100283C01001B
:10076400343C0100181A00205C3C0100F43B0100F9
:10077400703C0100983C0100C43C0100D4190020E5
:100784006FF01B0142B10320387100207871B871F9
:100794000120F871786818616FF300056FF3410563
:1007A4006FF382056FF3C505032363F38815C1F363
:1007B400090161F352256FF3DE456FF3DF75002302
:1007C40029462E4802F04EFFC5464FF40040002152
:1007D4000EF01AF944222A4907F1080003F0C6FB77
:1007E4008046E94602233B7188B06B4613F1100240
:1007F4003FF436AF0D20002A7FF435AF0221397063
:100804000C287FF751AF0D2142B10320387100202D
:100814007871B8710120F871786818616FF3000479
:100824006FF341046FF382046FF3C504032363F38E
:100834008814C1F3090161F352246FF3DE446FF3AA
:10084400DF74002321460D4802F00CFFCD4618F159
:100854000C0F3FF42CAFE84602233B7188B06B4683
:1008640013F110023FF447AF0D20002A7FF446AF86
:10087400022139700C2883DD0D2183E7743A0100CD
:10088400141A0020F8B5064638B133787578B47870
:1008940004EB83043444002712E00B4CC4232246A7
:1008A4000A490B480FF046FFC42120460FF03BFFD6
:1008B400EBE70134204610F0FEFC0130044401371C
:1008C400AF42F6D3A01BF8BDFC3C01002C3D010057
:1008D400443D01002DE9F04F8DB00592039313467A
:1008E40002F004020192C3F3C20210F00303029364
:1008F40040F0528207468A460132041D002844D043
:1009040027B1E31B0433534500F24982039B5D1E68
:10091400DDF808B0CDF810B0CDF818B000264FF0CF
:100924000408C1460FB1039B2360531E0793002A9A
:1009340040F34F81059B13F0020223D00120E11BF9
:100944008B081AB1B1F5007F80F05781BBF10F0F0E
:1009540000F26681002F00F07A81DBB20BF13002E5
:100964006A4402F8103C002800F06D8163F07F03B4
:100974000BF130026A4402F8103C049B01330493E7
:100984000BF1010B0434002231E001F0070A544456
:10099400CAF1080AB4E7002628E0002626E04FF052
:1009A4000808C14622E0252920D101264FF0040879
:1009B400C1461BE04729F0D82A2912D32A39C9B2E3
:1009C400012000FA01F14FF6DA7001420ED111F064
:1009D400625F40F0BB8011F0010140F085800E465B
:1009E40004E0202902D0232900D000261D466B1CD8
:1009F4006978002900F05381002ED4D07A29CAD80E
:100A04004C29D7D34C392E2960D801A050F821F0B5
:100A1400F1090000D10A0000D10A0000D10A000047
:100A2400D10A0000D10A0000D10A0000D10A000056
:100A3400D10A0000D10A0000D10A0000D10A000046
:100A4400E50A0000D10A0000D10A0000D10A000022
:100A5400D10A0000D10A0000D10A0000D10A000026
:100A6400D10A0000510B0000D10A0000E50A000081
:100A7400E50A0000510B0000510B0000510B00006F
:100A8400F1090000E50A0000A3090000D10A0000F2
:100A9400F1090000D10A0000AF0B0000E50A0000D4
:100AA400AF0B0000D10A0000D10A0000B90B00000E
:100AB400DD0A0000E50A0000D10A0000D10A0000A6
:100AC400E50A0000D10A0000D50A000000268DE7DF
:100AD4004FF00408C14689E74FF00408C14685E792
:100AE40029786C2924D000264444013CC8F1000133
:100AF4000C40204627B1E11B4944514500F2528184
:100B0400002A5DD1B9F1040F00F0AD80B9F1080FEE
:100B140040F0B1801699073121F0070101F1080076
:100B24001690D1E900010FB1C4E9000108345DE772
:100B340013F8021C6C2904D000264FF00408C146A7
:100B4400D2E700264FF00808C146CDE729784C29A2
:100B54001BD01699073121F0070101F10800169006
:100B6400D1E90001073424F0070447B1E61B083635
:100B7400564514D82D784C2D14D0C4E900010834FE
:100B840000264FF00808C14630E71699073121F0D6
:100B9400070101F108001690D1E90001E2E76FF0C6
:100BA4001B00F6E0C4E90001E9E700264FF0040861
:100BB400C14699E7324600264FF00408C14693E740
:100BC4000446169A111D169112680392079A1D463F
:100BD400A8E6794B039A9A4204D3784B9A420AD3F3
:100BE400002300E00023002B7FF4A4AE059B03F058
:100BF40002020020A3E60123F5E7714C40F27523BD
:100C04002246704970480FF095FD70480FF092FD30
:100C140040F2752120460FF086FD6FF01500B8E014
:100C2400674C40F27A232246664967480FF082FDFA
:100C340067480FF07FFD40F27A2120460FF073FDE4
:100C44006FF01500A5E0069B0133069398E608B9FA
:100C5400019B13B10AF1010A92E6039810F02BFBF1
:100C6400831C9A448CE61699081D1690096807B1EE
:100C740021600434BAE6524C4FF42E732246514993
:100C840051480FF057FD494652480FF053FD4FF4B9
:100C94002E7120460FF047FD6FF0150079E0E31B3D
:100CA400B3F5806F11D21FB300223A609B083B70EA
:100CB400019B0BB3069BFB70049BBB70A3BB029D03
:100CC400DDF81090DDF80C8046E03D4C4FF43173B4
:100CD40022463C493C480FF02DFD3F480FF02AFDC9
:100CE4004FF4317120460FF01EFD6FF0150050E0F7
:100CF4005344A3F108004CE0069B7B70DCE701330E
:100D04009B45DCD903F130026A4412F8101C12F935
:100D1400102C002AF3DA01F07F01E21B0132524564
:100D240043D804F8011BEAE7029BE9E7019B03B3FC
:100D3400029EE31B33440133534539D805F1300394
:100D44006B4413F8103C04F8013B324641462046FC
:100D540010F0E2FA34440135AB4519D9B9F1000F6A
:100D6400E4D005F130036B4413F9103C002BDDDAB9
:100D7400F1E705F130036B4413F8103C57F8238076
:100D8400002247F82320404610F095FA461CD0E78D
:100D9400E01B0DB0BDE8F08F6FF00D00F9E76FF0C8
:100DA4001B00F6E76FF01B00F3E76FF01B00F0E7A2
:100DB4006FF01B00EDE700BF4C360100886D0100A9
:100DC400FC3C0100E0560100443D0100643D01008B
:100DD400883D0100A43D0100BC3D01002DE9F04F18
:100DE40093B0019193460393DDF870A0064668B171
:100DF400019BCBB196F80280CDF80880B8F1000FC2
:100E040017D01AF0010F1CD1002313E0A94C40F2B3
:100E14005F332246A849A9480FF08CFC40F25F31A9
:100E240020460FF080FCE3E73046FFF72BFD0190EE
:100E3400E0E70023F77837B11AF0020F1DD1002242
:100E440002E00123F6E7002202B9C3B13578AA0013
:100E5400049206EB8505BBF1000F1CD0002B40F07B
:100E64008580029B002B00F08F801AF0040F40F065
:100E74008F800020814680467BE00122E4E7BBF1BD
:100E8400000F03D0039A01993046D847019C2046AD
:100E940013B0BDE8F08F019C03BB029BA3B31AF00F
:100EA400040928D01D444FF0000924E0044401350E
:100EB40008F10108D0451BD22A78002356F82220D5
:100EC400194658460EF00EFF002FEFD01E9B994591
:100ED400ECD227F8190009F10109E7E74FF00008FF
:100EE400C1460197CDF870A0DDF808A01D9FE1E789
:100EF400019FDDF870A00AF0050301934FF000088C
:100F0400CDF808B0B3461DE0DDF80890F3E71AF019
:100F1400020F29D000260023194602980EF0E2FEA3
:100F24001D9B3BB11E9B994504D21D9B23F81900C0
:100F340009F10109044416B1019B03B9013C0135CF
:100F440008F10108B845A2D22B785BF823205C4B4A
:100F54009A42DCD35B4B9A42D9D21AF0010F01D1E9
:100F64000126E8E70126D6E70026E4E70DA84FF0BE
:100F7400000918B1029A294610F0CEF9029B1D44CB
:100F84000024CDF814B05AE0002081468046F0E7F2
:100F9400C14609A84FF00008EBE71AF0010F1DD075
:100FA400B8F10F0F0BD808F101032A7808F14801B2
:100FB4000DEB010808F8142C5FFA83F83DE0DFF824
:100FC400F4B040F2F2335A463F493C480FF0B2FBCA
:100FD40040F2F23158460FF0A6FBE4E71AF0040F92
:100FE4002BD0B9F10F0F0BD809F101032A7809F1BD
:100FF40048010DEB010909F8242C5FFA83F91CE080
:10100400DFF8B0B040F2F5335A4630492B480FF0C0
:1010140091FB40F2F53158460FF085FBE4E7B8F157
:101024000F0F29D808F101032A7808F148010DEBC4
:10103400010808F8142C5FFA83F801350134BC4226
:1010440046D22B7856F823301D4A934202D31D4AC8
:101054009342A2D31AF0020FE1D1B9F10F0F1AD8BB
:1010640009F101032A7809F148010DEB010909F896
:10107400242C5FFA83F9E0E7DFF838B04FF47F738C
:101084005A4611490D480FF055FB4FF47F715846ED
:101094000FF049FBC6E7DFF81CB040F2FF335A46B5
:1010A4000A4906480FF046FB40F2FF3158460FF05C
:1010B4003AFBD5E7FC3C0100D43D0100443D01006E
:1010C4004C360100886D0100F03D0100103E010026
:1010D400DDF814B033788DF84430737843448DF8D8
:1010E40045301AF0020F0AD000238DF847301AF069
:1010F400010F06D11AF0040F33D1002302E04B464E
:10110400F3E700238DF8463030680890119830607A
:10111400DDF80CA0524604993046D847041EFFF669
:10112400B6AE089830605246494609A8D847002808
:1011340045DB04EB0009029A049B1A441146394426
:101144005246019B591A2846D847041EFFF69FAE03
:1011540009EB0405002701965E46D146DDF874B01C
:1011640015E04B46CEE74FF0000A4A4601210DF147
:101174001F00B047002824DB054453462246494655
:1011840030460EF0AFFD00281DDB05440137B8459D
:101194000FDD07F148036B4413F8143C8DF81F303E
:1011A400019A52F82340BBF1000FDCD03BF817A0A2
:1011B400DBE7039A00210846B0472C4667E604465D
:1011C40065E6044663E6044661E600BF38B50446B6
:1011D400436803F003038160022B03D9032B02D17C
:1011E40000680EE063B9084D45232A4607490848BC
:1011F4000FF0A0FA452128460FF095FA002000E0F0
:1012040000200023636038BD303E0100E056010039
:10121400443D0100014B1860704700BF18000020D6
:1012240010B586B004460390049100210591009105
:1012340003A9064800F0CAFD059B049A934201DA0B
:101244000022E254059806B010BD00BFA7FD0000BF
:1012540038B504468C46838B002A14DB03F007035D
:101264005A1F012A1BD9042B53D0304C40F21B13B4
:1012740022462F492F480FF05DFA40F21B112046F9
:101284000FF051FA38BDD0E900018CE803000023C7
:1012940023606360012120460EF0BBFDF2E7D0E934
:1012A40000018CE80300002222606260062B0FD04C
:1012B400052B20D1002120460EF0ABFD20460EF078
:1012C400D2FD0028DED0A38B43F02003A383D9E70B
:1012D400DCF8003053B1E28B0132E2831A461B681A
:1012E400002BF7D0002AF5D11346F3E7022120465C
:1012F4000EF08FFDE2E70D4D40F209132A460E4928
:101304000C480FF017FA40F2091128460FF00BFAB7
:10131400D0E700210EF07DFD20460EF0A4FD00284C
:10132400B0D0A38B43F02003A383ABE7543E01006A
:10133400E0560100443D0100783E01002DE9F04FE4
:1013440083B004461646838B03F0070703F00808AE
:101354000D4631B1B8F1000F12D10023009301936F
:1013640090E0DFF8D49240F233134A46B349B448CC
:101374000FF0E0F940F2331148460FF0D4F9E9E7F1
:10138400012D13D0022D16D1A38B43F02003A38388
:10139400143420460BF0C4F9002800F0968186F33B
:1013A4001188BFF36F8F03B0BDE8F08FA38B43F0B8
:1013B4001003A383ECE7A04D4FF49E732A46A14982
:1013C4009F480FF0B7F94FF49E7128460FF0ABF920
:1013D400DAE720460EF047FD054655E0D4F81890AC
:1013E4004A4669462046FFF733FF0025A38B03F0E6
:1013F4000708B84500F01681A268002A00F012819F
:10140400012743F00803A38304F1140A50460BF0A8
:1014140087F9002800F0288186F31188BFF36F8FC5
:10142400002F40F03281009B2BB14B464246694667
:1014340020460EF059FD15B183492046A8474FF0C8
:101444002003EFF3118683F31288BFF36F8F5046A6
:101454000BF056F9002800F01E8150460BF070F98D
:10146400A38B23F00803A383A38B13F0100F00F0C6
:10147400228123F01003A3830125A78B07F007071C
:10148400002D85D0022DA4D0002D81D0013D042D46
:1014940000F2B88001A353F825F000BFE113000067
:1014A40009160000B514000025150000971500006A
:1014B4005FB92368BBB123691D6815B306212046B3
:1014C4000EF0A7FC4FF0000990E75B4D4FF4AB73AF
:1014D4002A465E495A480FF02DF94FF4AB7128465D
:1014E4000FF021F9E5E7544D40F257132A465849C5
:1014F40053480FF01FF940F2571128460FF013F923
:10150400D9E7DFF834814FF4AD73424651494C4872
:101514000FF010F94FF4AD7140460FF004F9CDE728
:10152400022F0BD1E38BBBB923695D6815B304218A
:1015340020460EF06EFC4FF0000957E73E4D40F296
:101544005D132A4644493E480FF0F4F840F25D1119
:1015540028460FF0E8F8E5E7374D4FF4AF732A4615
:101564003E4937480FF0E6F84FF4AF7128460FF0C4
:10157400DAF8D9E7DFF8C08040F261134246354912
:101584002F480FF0D7F840F2611140460FF0CBF826
:10159400CDE7012F0BD12368BBB123699D6815B337
:1015A400052120460EF035FC4FF000091EE7224DC0
:1015B4004FF4B2732A462A4921480FF0BBF84FF47E
:1015C400B27128460FF0AFF8E5E71B4D40F2651302
:1015D4002A461F491A480FF0ADF840F26511284613
:1015E4000FF0A1F8D9E7DFF850804FF4B473424606
:1015F400184913480FF09EF84FF4B47140460FF0A9
:1016040092F8CDE70C4D40F26B132A4615490C486D
:101614000FF090F840F26B1128460FF084F8002583
:10162400A946E3E6009A0AB10027EAE6002D3FF452
:101634001BAF0027E5E600BF543E0100A03E0100B9
:10164400443D0100B03E010009170000C43E010002
:10165400D03E0100F43E01000C3F0100243F010094
:10166400343F0100E0560100DFF880B0B9235A4648
:101674001F4920480FF05EF851461F480FF05AF8F2
:10168400B92158460FF04FF8C6E64A46414620466F
:101694000EF0C7FBC7E6154D8E232A461749154899
:1016A4000FF048F8514616480FF044F88E212846AA
:1016B4000FF039F8D1E613F0200F04D023F0200303
:1016C400A3830225D9E60025D7E6084DB9232A4687
:1016D400074908480FF02EF8214607480FF02AF86A
:1016E400B92128460FF01FF859E600BF4C3F01000E
:1016F4007C3F0100443D0100943F0100AC3F0100E8
:10170400C43F01002DE9F04104460D4600F11406E2
:101714004FF02003EFF3118783F31288BFF36F8F29
:1017240030460AF0EDFF50B130460BF009F8A561E0
:101734003A4601212046FFF701FEBDE8F081DFF8BB
:1017440020808E234246074907480EF0F3FF3146B6
:1017540006480EF0EFFF8E2140460EF0E4FFE3E76B
:101764004C3F0100AC3F0100443D0100C43F010077
:101774002DE9F84F044688460EF08EFB061E4ADB20
:1017840004F114074FF02003EFF3118983F3128857
:10179400BFF36F8FCA4638460AF0B2FFA8B1384685
:1017A4000AF0CEFFA58B05F00705E38B4FF6FF7219
:1017B400934255D02E46022D17D0062D3CD8DFE893
:1017C40005F034563B3B342D3400404D8E232A46DD
:1017D4003F4940480EF0AEFF39463F480EF0AAFF9D
:1017E4008E2128460EF09FFFD9E70133E3834FF0A3
:1017F400010B00231A4642B10022C8F80020626897
:10180400E2B3C2F80080C4F80480E3B34A4602217C
:101814002046FFF793FD3046BDE8F88F6FF085064C
:101824004FF0000B5B465A46E5E7B5FA85F35B09D2
:101834004FF0000B0122DEE7284E4FF4E4733246EA
:10184400274924480EF076FF4FF4E47130460EF039
:101854006AFF6FF004064FF0000B5B465A46CAE776
:101864006FF00A064FF0000B5B465A46C3E76FF071
:1018740004064FF0000B5B465A46BCE7C4F80480EC
:10188400C4F80080C1E738460AF04AFF68B18AF319
:101894001188BFF36F8FBBF1000FBCD000232A4621
:1018A400414620460EF00DFBB5E7DFF82090B92342
:1018B4004A460C4907480EF03DFF39460A480EF0E7
:1018C40039FFB92148460EF02EFFE0E74C3F0100F6
:1018D400AC3F0100443D0100C43F0100543E0100FF
:1018E400343F01007C3F0100943F0100F8B50446F9
:1018F4000D464FF02003EFF3118683F31288BFF3F4
:101904006F8F0AF0FDFE28B120460AF019FF2E6001
:101914006068F8BD074F8E233A46074907480EF022
:1019240009FF214606480EF005FF8E2138460EF0C9
:10193400FAFEE9E74C3F0100AC3F0100443D0100E1
:10194400C43F01002DE9F84F04460D4617461E46D4
:101954009DF828804368002B0ADB002E0BDBB8F1CE
:10196400000F22D06368013363604FF0020A05E080
:1019740000234360F1E766604FF0010AD4F8049055
:1019840020460AF0CDFEB0B185F31188BFF36F8F06
:1019940047B1B8F1000F1FD03346524639460020F4
:1019A4000EF08FFA4846BDE8F88F6368013B636028
:1019B4004FF0020AE2E7DFF83CB0B9235A460E4979
:1019C4000E480EF0B7FE21460D480EF0B3FEB921C5
:1019D40058460EF0A8FED7E70A4C40F28A23224666
:1019E400094906480EF0A6FE40F28A2120460EF070
:1019F4009AFED1E74C3F01007C3F0100443D0100C9
:101A0400943F0100543E0100986901002DE9F84318
:101A1400154606684B420B4001F1FF3919EA0109EA
:101A24000CD0B268B2F5004F06D30827BB425BD294
:101A34001F464C46994609E00427F7E70C46B3686D
:101A4400B3F5004F49D30827BC4248D9631E23424B
:101A54004DD1002D75D0B368B3EBD50F74D961198E
:101A6400C91BB3F5004F54D3082319440731C908DF
:101A740030460EF09DFB0746002868D001463046EC
:101A84000EF08BFA00EB0908A04408F1FF38644219
:101A940008EA0408A8EB090808EB0504073424F055
:101AA4000704414630460EF04FFB0546A41BE410E4
:101AB400874230D306EBC503B268B2F5004F34D386
:101AC4005B6805EB53039C4231D30122294630461F
:101AD4000EF047FA4046BDE8F8830427B4E72946E8
:101AE4000EF0B7FB8046F5E74C469946AEE7DFF8C3
:101AF40064804FF4A0734246174918480EF01AFE4A
:101B040017480EF017FE4FF4A07140460EF00BFE7E
:101B14009FE70423A9E70246394630460EF0D1FA7E
:101B2400394630460EF01BFBC4E75B88C9E7224602
:101B3400294630460EF0C5FA214630460EF00FFB1A
:101B4400C3E74FF00008C5E74FF00008C2E74FF0C5
:101B54000008BFE7DC3F0100B0400100443D010044
:101B6400CC4001002DE9F04706460D461446B2F577
:101B7400802F01D2042A2CD9B4F5802F3AD308231C
:101B8400E21AEC1D24F00704154425F007052D1B6B
:101B94004FEAD509172D2FD93460C4F808900023D3
:101BA400E360B5F5802F38D308230833A9EBD306B7
:101BB4000136B6FA86F6C6F12007C6F12406B60049
:101BC40007364FEAD60808EBD3034B4527D8002342
:101BD4003CE0474F4FF4F5733A46464946480EF009
:101BE400A9FD46480EF0A6FD4FF4F57138460EF0F7
:101BF4009AFDC1E70423C3E73D4F40F2F3133A468D
:101C04003F493D480EF096FD3C480EF093FD40F2EE
:101C1400F31138460EF087FDBEE70423C5E7DFF86D
:101C2400D0A04FF401735246364933480EF082FD7A
:101C340032480EF07FFD4FF4017150460EF073FDF3
:101C4400C5E71A1D002144F822100133BB42F8DB1A
:101C54004FEA4802A368B3F5004F35D36260B3F589
:101C6400004F33D300222260B3F5004F31D36268B2
:101C740042F001026260A9EB0802500026F0070658
:101C8400A119B3F5004F29D34860A368B3F5004FF9
:101C940026D344F8068025F007032544A168B1F54E
:101CA400004F20D300216960A168B1F5004F1DD316
:101CB400E2500122494620460EF053F9414620469F
:101CC4000EF04DFABDE8F0876280C8E7002222805A
:101CD400CAE7628842F001026280CCE74880D4E718
:101CE40024F80680D7E700216980DDE7E252E0E7C7
:101CF400DC3F0100EC400100443D010010410100C3
:101D04002C4101005841010084460846012226E086
:101D14009CF8003043F004038CF80030F2B1013039
:101D24001CE09CF8003043F008038CF80030F5E721
:101D34009CF8003043F010038CF80030EEE79CF878
:101D4400003043F020038CF80030E7E79CF80030C3
:101D540043F040038CF80030E0E7002242B30378FC
:101D6400203B102BF9D801A151F823F0351D0000B8
:101D74005F1D00005F1D0000431D00005F1D00008B
:101D84005F1D00005F1D00005F1D00005F1D00005F
:101D94005F1D00005F1D0000271D00005F1D000087
:101DA400151D00005F1D00005F1D0000511D000097
:101DB4009CF8003003F04403442B00D070479CF897
:101DC40000306FF386138CF80030F7E72DE9F04FFD
:101DD40091B006460D4691460393002499F80000FD
:101DE400002800F0B982252808D009F10109294604
:101DF400B0470028C0F2B1820134EFE70023049316
:101E040005930693079308930993494606A80EF091
:101E1400CAFB02909DF8193013F0010F00F097806F
:101E2400039B1A1D03921F68002FC0F288809DF83F
:101E3400193013F0040F00F09C80039B1A1D0392C9
:101E4400D3F800A0BAF1000FC0F28A8000230793F0
:101E540008939DF81A3003F007039DF81910C1F395
:101E6400C301012B00F08E80022B00F0D380042BE1
:101E740000F02481032B00F03B819DF8188018F0BA
:101E8400030B40F03B819DF81B30253B532B00F2A4
:101E9400CA81DFE813F04001C801C801C801C801C4
:101EA400C801C801C801C801C801C801C801C801E6
:101EB400C801C801C801C801C801C801C801C801D6
:101EC400C801C801C801C801C801C801C801C801C6
:101ED400C801C801C801C801C801C801C801C801B6
:101EE400C801C801C801C801C801C801C801C801A6
:101EF400C801C801C801C801C801C8018101C801DD
:101F0400C801C801C801C801C801C801C801C80185
:101F1400C8015E016701C801C801C801C8016701A1
:101F2400C801C801C801C801BD018101A101C801DE
:101F3400C8014D01C8018101C801C80181019DF892
:101F4400183043F004038DF818307F426FE79DF991
:101F54001830002B02DB4FF0FF3768E7079F66E776
:101F64009DF819306FF341038DF819304FF0FF3AA3
:101F74006CE713F0020F02D0DDF820A066E74FF003
:101F8400FF3A63E7CB1E042B04D8DFE803F00B1DF4
:101F940029353500039B1A1D03921B68DA17049335
:101FA400059206E0039B1A1D03921B68DA1704933B
:101FB4000592012928D002297FF45FAFBDF91030C2
:101FC400DA170493059258E7039B073323F00703BA
:101FD40003F108020392D3E90023CDE90423E8E7DF
:101FE400039B073323F0070303F108020392D3E9A9
:101FF4000023CDE90423DCE7039B1A1D03921B682D
:10200400DA1704930592D4E79DF91030DA17049394
:10201400059232E7CB1E042B04D8DFE803F00B1F34
:1020240035414100039B1A1D03921B68049300234E
:1020340005931EE09DF81B30632B07D0039B1A1DEC
:1020440003921B6804930023059312E0039B1A1D5B
:1020540003921B680493002305930AE0039B073350
:1020640023F0070303F108020392D3E90023CDE927
:10207400042301291CD002297FF4FFAEBDF81030DF
:10208400049300230593F8E6039B073323F0070327
:1020940003F108020392D3E90023CDE90423E8E71E
:1020A400039B1A1D03921B68049300230593E0E726
:1020B4009DF81030049300230593DEE608290BD025
:1020C400039B073323F0070303F108020392D3E9C8
:1020D4000023CDE90423D0E6039B073323F0070351
:1020E40003F108020392D3E90023CDE90423C4E6F3
:1020F400039B1A1D03921B680493BEE6029F3B4692
:102104004A46294630460EF0F4FA0028C0F22581EA
:102114000444B94662E629462520B0470028C0F2A7
:102124001C810134D8460DF13E0A4FF000097FE0CE
:10213400DDF81090BAF1000F07DB514648460FF066
:10214400C3F809EB000AD84672E048460FF0B3F82A
:10215400F7E7049B8DF82830D8460DF1290A0DF1D4
:10216400280965E018F0080F05D118F0100804D00C
:102174004FF0200801E04FF02B08049A059B002B38
:1021840002DB0492059308E0524263EB430304929A
:1021940005934FF02D0800E0D8460DF13E0300935F
:1021A4000AAB06AADDE904010EF034FA8146BAF15D
:1021B400000F6CDB0DF13E03A3EB09039DF818201F
:1021C4006FF386128DF818209A4563D9AAEB03039E
:1021D40007930DF13E0A2BE0049828B9D846DFF89E
:1021E40080A1AAF1050923E00DF13E0300930AAB97
:1021F40006AA00210EF00EFA81469DF81A3043F02B
:1022040010038DF81A3078238DF81B30D846CEE7AA
:102214002246049906A80EF04DFAD8460DF13E0A5E
:102224004FF0000904E0D8460DF13E0A4FF00009D2
:10223400B9F1000F00F08D80AAEB0903B8F1000F8B
:1022440000D001339DF81A2012F0100F25D002336C
:1022540007990B4412F0400F01D0089A1344002F41
:1022640031DDFF1A9DF8183013F0040F2BD113F051
:10227400400F17D0B8F1000F17D029464046B04799
:1022840000286ADB0134D8464FF0300B0FE00DF123
:102294003E0ACDE70DF13E0ACAE712F0080FD7D087
:1022A4000133D5E74FF0200B01E04FF0300B3B46F4
:1022B4005F1E002B07DD29465846B04700284CDB3B
:1022C40001343B46F4E7B8F1000F05D029464046F7
:1022D400B047002841DB01349DF81A30C3F30012E3
:1022E400C3F3C0031A4305D029463020B047002861
:1022F40033DB01349DF81A3013F0100F06D0294651
:102304009DF81B00B047002827DB0134079B03F12D
:10231400FF38002B07DD29463020B04700281CDB9E
:1023240001344346F3E753464A46294630460EF005
:10233400E0F9002811DB0444002F07DD29462020A2
:10234400B047002809DB0134013FF5E7DDF80890C8
:1023540044E5DDF8089041E5204611B0BDE8F08F72
:102364008941010038B504460D46202200210FF0B2
:1023740002F8EB68E361AB68A3612B6823626B68C6
:1023840063620022A2622A6922612BB1591E0B42A8
:1023940002D142F00102226104F12C000122002149
:1023A40011F02DF800B938BD054C2E2322460549FD
:1023B40005480EF0BFF92E2120460EF0B4F9F2E7DD
:1023C4008C410100B4410100443D01002DE9F04F6E
:1023D40085B000920193436A013B8B42C0F0E480D4
:1023E400804689460027BA4632E0DFF8C8B18E231A
:1023F4005A46714971480EF09DF9294670480EF00D
:1024040099F98E2158460EF08EF931E0D8F824203F
:10241400013A1340C8F80030002428460AF080F935
:10242400002800F0AF808BF31188BFF36F8F64B185
:102434005FB19DF80B3043B1D8F81830002B00F091
:10244400B1803946404698470027002C00F0AE8002
:1024540008F114054FF02003EFF3118483F312887D
:10246400BFF36F8F264628460AF04AF90028BCD0ED
:1024740028460AF065F9A34603A940460EF068F918
:102484000446039949451ED3D8F82030D8F80020D3
:1024940003EB820A13F822106FF3000103F82210F1
:1024A400C9B26FF3410103F82210D8F800304B444D
:1024B400D8F8102012F0010FA8D1D8F824209342A4
:1024C400A8D39B1AA6E7B0B9019B009A134303D083
:1024D40010F05BFF044690B1D8F810200DF10B0307
:1024E400C2F34002039940460EF095F90746041ED4
:1024F40018BF012491E740460EF064F98DE72846A1
:102504000AF00EF9F0B186F31188BFF36F8F08F16A
:102514002C00009A019B0AF02DFD06464FF0200383
:10252400EFF3118B83F31288BFF36F8F28460AF001
:10253400E7F8C0B128460AF003F9002E7FF46DAF26
:1025440001246AE7DFF86CB0B9235A461D491B48D9
:102554000EF0F0F829461C480EF0ECF8B921584664
:102564000EF0E1F8CFE78E23124A134913480EF018
:10257400E1F8294612480EF0DDF88E210D480EF0E0
:10258400D2F8D7E70B4EB92332460E490B480EF06A
:10259400D1F829460C480EF0CDF8B92130460EF09A
:1025A400C2F840E7002750E74FF0000A504605B054
:1025B400BDE8F08F4C3F0100AC3F0100443D0100F9
:1025C400C43F01007C3F0100943F01002DE9F84322
:1025D40004460D46C36908469847804604F114062C
:1025E4004FF02003EFF3118783F31288BFF36F8F4B
:1025F40030460AF085F890B130460AF0A1F82B78FD
:1026040043F001032B70636803EB0800236913F0A4
:10261400010F15D1636A984215D3C01A13E0DFF88D
:1026240064908E234A46184918480EF083F83146C0
:1026340017480EF07FF88E2148460EF074F8DBE759
:10264400636A013B1840606020460EF0A8F83046EB
:102654000AF066F828B187F31188BFF36F8FBDE8DD
:10266400F883084CB92322460A4908480EF062F858
:10267400314609480EF05EF8B92120460EF053F8B1
:10268400E9E700BF4C3F0100AC3F0100443D0100BD
:10269400C43F01007C3F0100943F01002DE9F84351
:1026A400044654E0524F8E233A46524952480EF0A3
:1026B40041F8294651480EF03DF88E2138460EF077
:1026C40032F853E09B1A5AE051F8220080086CD18A
:1026D40062E0616A01390B40A360E368034422B9F4
:1026E400626A934204D39B1A02E0626A013A13407D
:1026F400E3604FF001081EE011F8223043F00203BA
:1027040001F82230D4F80880E369384698474044F9
:10271400236913F0010F04D1636A984204D3C01AE9
:1027240002E0636A013B1840A0604FF0000802E039
:102734004FF000084746284609F0F2FF002843D02E
:1027440086F31188BFF36F8FB8F1000F4DD004F1F9
:1027540014054FF02003EFF3118683F31288BFF3BF
:102764006F8F284609F0CCFF00289BD0284609F03B
:10277400E7FFA26863689A42A4D9636A9B1A216A34
:1027840001EB8207002BD3D011F8223013F003039E
:1027940016D0022B98D0002011F8223013F0010F2C
:1027A400AAD110B9E36938469847A368034422695B
:1027B40012F001028DD1616A8B428DD35B1A8BE7D3
:1027C4004FF000084746B6E7DFF82490B9234A469D
:1027D4000B4909480DF0AEFF29460A480DF0AAFF3F
:1027E400B92148460DF09FFFAAE73846BDE8F883B3
:1027F4004C3F0100AC3F0100443D0100C43F0100D7
:102804007C3F0100943F01002DE9F84304460D4646
:10281400C36908469847804604F114064FF0200324
:10282400EFF3118783F31288BFF36F8F304609F0FB
:1028340067FFA8B1304609F083FF2B786FF30003DC
:102844002B70236913F0020F1BD0236AE26803EB99
:102854008203AB4215D02B6868F39F032B6023E0FF
:10286400DFF880908E234A461F4920480DF062FF0E
:1028740031461F480DF05EFF8E2148460DF053FF90
:10288400D8E72B786FF341032B70E3684344226944
:1028940012F0010F04D1626A934204D39B1A02E03E
:1028A400626A013A1340E360304609F039FF48B1E7
:1028B40087F31188BFF36F8F04F12C000AF016FB25
:1028C400BDE8F883074DB9232A460A4907480DF0A5
:1028D40031FF314608480DF02DFFB92128460DF08F
:1028E40022FFE5E74C3F0100AC3F0100443D0100FD
:1028F400C43F01007C3F0100943F010068B108B56A
:10290400064A074B1B680749A1FB03139B0C00FBFA
:1029140003F042F00103984708BD7047903B010063
:102924002401002083DE1B4338B5044600680EF002
:1029340009F8B0B1236803F01F0222605B091ED0BE
:10294400012B1ED0104C4FF4137322460F4910482C
:102954000DF0F0FE4FF4137120460DF0E4FE0D4827
:1029640010E0094D40F247232A460B4908480DF070
:10297400E1FE40F2472128460DF0D5FEDAE705488E
:1029840000E0064838BD00BFC0410100E056010028
:10299400443D010000258450F44101000028845086
:1029A40070B54FF02003EFF3118683F31288BFF361
:1029B4006F8F0124124BC3F80045124D0223C5F852
:1029C400D036032100200DF0CFFF032120460DF067
:1029D400CBFFC5F80447C5F80449C5F8004B0024EB
:1029E40005E00121084B185D0DF0BEFF0134032CF6
:1029F400F7D986F31188BFF36F8F002070BD00BF35
:102A0400001000500040005018420100062800D079
:102A1400704708B501480DF0BEFF00BF00400050EC
:102A240000B583B00246084B00930823019307497D
:102A340068460DF0BDFF002803DB012168460DF058
:102A4400C6FF03B05DF804FB94370100C12C0000FD
:102A540038B504460F2803D8A00000F0FC0038BDA8
:102A6400064D40F2E1132A46054906480DF062FE80
:102A740040F2E11128460DF056FEEDE72042010038
:102A840054420100443D010070B504460D4621B195
:102A940044F00044C5F8804070BD074E4FF41273F3
:102AA4003246064906480DF045FE4FF41271304691
:102AB4000DF039FEECE700BF6042010098420100CE
:102AC400443D010038B50C4619B10023C4F88030E8
:102AD40038BD074D4FF417732A46064906480DF0D2
:102AE40029FE4FF4177128460DF01DFEEDE700BFD7
:102AF4006042010098420100443D010038B504469B
:102B04000F2803D8A00000F5807038BD064D40F2B0
:102B1400E7132A46054906480DF00CFE40F2E7117A
:102B240028460DF000FEEDE720420100544201006A
:102B3400443D010070B504460D4621B144F0004403
:102B4400C5F8804070BD074E40F24E233246064918
:102B540006480DF0EFFD40F24E2130460DF0E3FD46
:102B6400ECE700BF604201009C420100443D0100CB
:102B740038B50C4619B10023C4F8803038BD074D70
:102B840040F263232A46064906480DF0D3FD40F27D
:102B9400632128460DF0C7FDEDE700BF6042010048
:102BA4009C420100443D010010B5C4B20123A3407E
:102BB4000C4AC2F80835C0F3072006F053F8204643
:102BC40006F0D2FF084B984200D110BD074C752384
:102BD4002246074907480DF0ADFD752120460DF04A
:102BE400A2FDF2E7007001500000AD0BA04201000D
:102BF400D8420100443D0100F8B504460F46C0F335
:102C0400072005F06BFE0646C4F30740FFF720FFDC
:102C1400054647B1E0B2084B40F000425A513146F4
:102C2400FFF732FFF8BD3146E0B2FFF74BFF024B2E
:102C340000225A51F6E700BF80A0025070B5044646
:102C44000E46000EFFF75AFF0546C4F3072005F0B1
:102C540063FE014646B1E4B22046FFF76BFF064B24
:102C640044F000445C5170BDE0B2FFF781FF024BB9
:102C740000225A51F7E700BF80A0025070B582B01D
:102C84000446C0F30726304605F068FE05460021D9
:102C94002046FFF7D3FF01212046FFF7ADFF05F1E2
:102CA40032020194044B009352000023304605F095
:102CB400DFFE02B070BD00BFED09010030B583B086
:102CC400144600900191002168460DF080FE20B961
:102CD4002046FFF7D3FF03B030BD064DCB232A4671
:102CE400054906480DF026FDCB2128460DF01BFDB5
:102CF400EEE700BFA0420100B4410100443D0100E1
:102D0400F0B583B000AF381D06F026FF314B984272
:102D14003BD06FF012046D4688B06B4613F110027D
:102D240052D00C213AB10846042901DD2A4E5E61D5
:102D3400082800DD9C610B2949DD4FF00C0C3AB1E9
:102D44000321397000217970B970F97038681861FD
:102D540000216FF300016FF341016FF382016FF300
:102D6400C501012363F388110CF47B7C6CF35221BD
:102D74006FF3DE416FF3DF710023184800F072FC3B
:102D8400AD4620460C37BD46F0BD05F043FF041E9A
:102D940016DB7C710723BB710823FB717868FFF78E
:102DA4003FFE041EB7DB3B79012101FA03F30C4A11
:102DB400C2F804357868FFF741FF002CE1D0AAE798
:102DC400387906F0D1FEF8E76FF00041AAE76FF01A
:102DD4001B0CB4E70000AD0BEC420100D43A010037
:102DE4000070015006F098BB38B5044610B1636812
:102DF400587938BD064D4FF495732A46054906485F
:102E04000DF098FC4FF4957128460DF08CFCEEE71C
:102E14002043010058430100443D010038B50446F5
:102E240028B12368DB680BB12046984738BD064DAE
:102E34008A232A46054906480DF07CFC8A21284647
:102E44000DF071FCEDE700BF204301005843010081
:102E5400443D010038B5044628B123681B6973B1A9
:102E64002046984738BD074D9D232A460649074802
:102E74000DF060FC9D2128460DF055FCEDE7002087
:102E8400F0E700BF2043010058430100443D010026
:102E940038B5044620B123689B682046984738BD5E
:102EA400054DCF232A46054905480DF043FCCF21A3
:102EB40028460DF038FCEEE720430100584301009A
:102EC400443D010070B50C46054630B12B685B6883
:102ED40013B121462846984770BD064EC123324699
:102EE400054906480DF026FCC12130460DF01BFCB7
:102EF400ECE700BF2043010058430100443D0100BA
:102F040070B50C46054630B18CB12B681B68214660
:102F14002846984770BD0C4EB12332460B490C48E5
:102F24000DF008FCB12130460DF0FDFBECE7064E38
:102F3400B2233246074906480DF0FCFBB221304665
:102F44000DF0F1FBE1E700BF20430100584301000D
:102F5400443D01007043010070B50646002500E0C1
:102F640001350D4B0D4A9B1AB5EB231F12DA0B4C9E
:102F740004EB05142046FFF737FF0028F0D0314654
:102F840020460DF04EFD0028EAD031462046FFF7DA
:102F9400B7FFE5E770BD00BFFC3A0100EC3A010061
:102FA400F8B50C461546064638B133689B691BB123
:102FB4002A46214630469847F8BD074F40F2591338
:102FC4003A46064906480DF0B5FB40F25911384619
:102FD4000DF0A9FBE9E700BF2043010058430100BD
:102FE400443D010070B506460D46002407E02A461C
:102FF4003146064800EB0410FFF7D2FF0134044BBE
:10300400024A9B1AB4EB231FF1DB70BDEC3A0100BA
:10301400FC3A01002DE9F04107460546EDB195FA69
:10302400A5F6B6FA86F60E4C04EB06140123B3405B
:103034006FEA030825EA0305237B002BEED0204624
:10304400FFF708FF0028E9D107EA080763680422AC
:103054001968204600F0DAFAE0E73846BDE8F08166
:10306400EC3A01002DE9F04782468946264B274A6F
:103074009B1A1F11902B0BD8254BD3E8EF6F721CB2
:10308400C3E8E12F0029F8D1002E39D1002414E03F
:10309400204C4FF4847322461F4920480DF04AFB0C
:1030A4004FF4847120460DF03EFBE5E76B68042283
:1030B4001968284600F0AAFA0134BC4211DA134D0B
:1030C40005EB04152B7B002BF6D02846FFF7A6FE54
:1030D4002846FFF7BFFE0028E8D00123A3401E4383
:1030E400EAE7BAF1000F0CD05EB13046FFF792FF69
:1030F4000646B9F1000FF7D00A200DF098FCF3E76B
:1031040000263046BDE8F087FC3A0100EC3A0100A5
:10311400A41A002084430100B4430100443D01008B
:1031240008B5064B186018B1054B1B68092B00DC69
:1031340008BD044809F0DAFEFAE700BF981A002037
:10314400A01A0020F002002008B5024809F0CEFEC3
:1031540008BD00BFF002002030B589B000220F493D
:103164000F4810F040FA0F4D00220023CDE906234A
:10317400002404940E2303930294019400940A4BB4
:103184004FF480520949284609F002FC08492846B0
:1031940009F096FA204609B030BD00BF4D31000059
:1031A400B013002000030020D5340000782900204B
:1031B400D8430100014B53F820007047104401002C
:1031C40038B108B5044A1060084600F04BFD0020F1
:1031D40008BD6FF0150070471C00002008B5054BB2
:1031E4001B781BB1034B01221A7008BD024809F079
:1031F4007DFEF7E76C290020F0020020094BD3E89C
:10320400EF1F0131C3E8E21F002AF8D100B970476B
:10321400054BD3E8EF1F0139C3E8E21F002AF6D0BB
:10322400F7E700BF9C1A0020A01A0020044B0020DE
:103234000146D3E8EF0FC3E8E21F002AF9D1704733
:103244009C1A002070B5FFF7F1FF0646002500E048
:1032540001350A4B0A4A9B1AB5EB231F0CDA084CBA
:1032640004EB05142046FFF7BFFD0028F0D03146DB
:103274002046FFF727FEEBE770BD00BFFC3A0100D4
:10328400EC3A0100034B18680028D4BF0020012049
:10329400704700BF9C1A002008B502490248FFF796
:1032A40061F808BDFC4301005C1A002008B5002346
:1032B400054A1370054A13604FF400410448FFF7B0
:1032C4007FFFFFF7E9FF08BD6D2900209C1A00204D
:1032D4002B0A010008B50146002200230148FFF72C
:1032E40075F808BD5C1A002008B50248FFF7D6F946
:1032F40008BD00BF5C1A002008B501460148FFF76D
:1033040083FA08BD5C1A002008B502480DF00DFBD5
:1033140008BD00BF5C1A00200F4B187800B9704735
:1033240010B5FFF7E1FF044668B10C4BD3E8EF1F7B
:103334000139C3E8E21F002AF8D12046FFF70CFE4A
:103344002046FFF7D9FFFFF79DFF10B9FFF7DCFF19
:1033540010BDFFF777FFF9E76C290020A01A0020C1
:1033640038B5124B1B7803B138BD00210120FFF79B
:1033740079FE002500E001350D4B0E4A9B1AB5EB92
:10338400231F0BDA0B4C04EB05142046FFF72CFD2E
:103394000028F0D02046FFF77BFDECE7FFF7BCFFE9
:1033A4000028FBD1014B01221A70DDE76D290020B2
:1033B400FC3A0100EC3A010030B583B02F4BD3E85E
:1033C400EF2F511CC3E8E01F0028F8D12C4B1B78C9
:1033D4006BB92C4B1B6823B3002A44D00A2A20D192
:1033E400294810F00CF9294809F080FD19E04FF044
:1033F4002003EFF3118483F31288BFF36F8F244803
:1034040009F07EF978B1224D284609F099F9FFF7C1
:1034140083FF284609F084F9A8B184F31188BFF327
:103424006F8F03B030BD1B4D8E232A461A491B48AB
:103434000DF080F916491A480DF07CF98E212846C2
:103444000DF071F9DFE7134DB9232A4615491348E6
:103454000DF070F90E4914480DF06CF9B9212846A5
:103464000DF061F9D9E700220023CDE900234FF4E0
:103474000042002304480CF0D9F8D2E7A01A002037
:103484006D290020981A0020B0130020F0020020BB
:10349400581A00204C3F0100AC3F0100443D01009C
:1034A400C43F01007C3F0100943F010010B5044675
:1034B400054B1B689847A06021460448FFF786F82F
:1034C400FFF77AFF10BD00BF1C0000205C1A00202B
:1034D4002DE9F041234B244A9B1A002B0EDD0021D9
:1034E4000846FFF7BFFD8046B0B140F2676600278B
:1034F4000BF0D4FAFFF714FE002523E01B4C40F236
:103504008A2322461A491B480DF014F940F28A21F5
:1035140020460DF008F9E2E74FF0FF364FF0FF3791
:10352400E6E74046FFF776FD804670B94FF0FF3678
:103534004FF0FF3709E02C4632463B460E4809F06F
:1035440019FD2546B8F1000FEBD1FFF7E5FE04465F
:103554000028F6D1002DEED000210846FFF742FDE9
:10356400EAE700BFFC3A0100EC3A010084430100A1
:10357400E0430100443D0100F002002070B50C4618
:10358400054610B16B681C7170BD064EDE233246D1
:10359400054906480DF0CEF8DE2130460DF0C3F89B
:1035A400F0E700BF2043010058430100443D0100FF
:1035B40070B50C46054628B16B681C606B68012227
:1035C4005A7170BD064E40F20F1332460549064843
:1035D4000DF0B0F840F20F1130460DF0A4F8EBE70F
:1035E4002043010058430100443D0100054B064AB5
:1035F4009B1AB1EBD30F02D252F83100704700206E
:10360400704700BFEC3A01006C3A010038B504463B
:103614000D46074BC31A1B110133D9B2FFF7AEFF96
:1036240029462046FFF7C4FFFFF7D8FD38BD00BF89
:10363400EC3A010000B589B0059206930023079384
:1036440062B1074A0C9B02930B9B01930A9B009364
:1036540005ABFDF7C3FB09B05DF804FB0022F1E7FD
:103664008B0A01002DE9F0478AB005461E460F4635
:10367400C1F34924002C39D09046002207920892C5
:1036840009920423029305AB01930223009307AB31
:1036940021464046FDF7A2FB60F35227C0F3090917
:1036A400C7F3CB414944173121F007018808FFF7DC
:1036B40011FE824620B30423029305AB0193022337
:1036C40000934B4600F1100221464046FFF7B2FF3B
:1036D400002815DA0F4C482322460F490F480DF0F5
:1036E40029F8482120460DF01EF809E0C1F3CB412A
:1036F4000C44173424F00704A008FFF7EBFD8246BE
:1037040033463A46294650460DF0D3F90AB0BDE88F
:10371400F08700BF204401004C440100443D0100F7
:103724002DE9F04F87B081460E4690461F46DDF8DE
:1037340040B0DDF848A0BAF1000F16D0139B0593F2
:1037440000935346119A10210020FDF7C3F8051E7B
:103754000CDA264C67232246254926480CF0EAFF5A
:10376400672120460CF0DFFF00E00025039505EB00
:103774000B00173020F0070000246FF300046FF3F0
:1037840041046FF3820469F3C50468F3881465F394
:1037940052246BF3DE446FF3DF748008FFF79AFD65
:1037A400054660B11030BAF1000F08D0139B0093A6
:1037B4005346119A0399FDF78DF8002808DB3B4620
:1037C4002246314628460DF074F907B0BDE8F08F63
:1037D400DFF8188081234246054906480CF0AAFF09
:1037E400812140460CF09FFFE9E700BF204401001F
:1037F40058440100443D01000EB400B584B00146B4
:1038040005AB53F8042B0393002000900348FEF704
:10381400DDFA04B05DF804EB03B07047A13A000090
:1038240030B585B011F0440F05D01A4B1C6834B97B
:10383400002005B030BD1849FFF7DEFFF9E7174B4C
:103844001968B2FBF1F1B1FBF4FC154AA2FB0C328E
:10385400D20A4FF4616E0EFB12CE124BA3FB0E5331
:103864005B0904FB1C114FF47A7C0CFB01F1B1FBE6
:10387400F4F504FB15110CFB01F1B1FBF4F1029119
:103884000195C3EB0311AEEB810100910649FFF7EB
:10389400B3FFCEE7AC1A002064440100A81A00204C
:1038A400C5B3A291898888887044010061B108B5C4
:1038B4002AB1064A52F8232012B9054A00E0044A04
:1038C4000449FFF799FF08BD704700BF8045010018
:1038D4008C440100944401002DE9F04105469046D2
:1038E4001E46069F81B900242EB13246104928464F
:1038F400FFF782FF0444B7B1B8F1000F0DD0079B66
:10390400042B13D00B4909E00B4B079A53F82220E0
:103914000A49FFF771FF0446E6E706493A46284696
:10392400FFF76AFF04442046BDE8F0810449F5E747
:10393400AC4401009C44010094450100A4440100EE
:10394400984401002DE9F04F85B005460C46164613
:1039540003939DF8408001F0020B01F0010AC1F3CA
:10396400C0090DF08EF8D8B1024612492846FFF777
:1039740043FF0746BBF1000F14D142465146284687
:103984000DF0C4F8CDF804800F9B00930E9B3246D3
:1039940049462846FFF7A0FF384405B0BDE8F08F3C
:1039A4000027E7E7039A21462846FFF739FF074433
:1039B400E3E700BFB044010011F0100F0BD108B5CC
:1039C40011F0200F03D00449FFF716FF08BD034987
:1039D400FFF712FFFAE77047C84D0100646D01005C
:1039E4002DE9F04105460F46164698460699FFF71D
:1039F400E3FF0024444505DA23492846FFF7FCFE8B
:103A04000134F7E7002409E01F492846FFF7F4FED4
:103A14000BE01E492846FFF7EFFE01340F2C0CDCA7
:103A2400002C02DD14F0070FEED0B442F1D23A5D5F
:103A340017492846FFF7E0FEEFE716492846FFF747
:103A4400DBFE002409E010492846FFF7D5FE0BE011
:103A540011492846FFF7D0FE01340F2C12DC002C4C
:103A640002DD14F0070FEED0B44206D23A5DA2F1A3
:103A740020035E2BECD92E22EAE703492846FFF700
:103A8400BBFEE9E7BDE8F081A8440100BC440100A5
:103A9400B4440100C0440100C444010038B50546E3
:103AA4000C464B681A68CB689A4210D06368D3E816
:103AB400EF2F511CC3E8E01F0028F8D1A3689D54E0
:103AC40063681A68E3689A4205D8002038BD08463E
:103AD4000DF04FF8EAE7064C7923224605490648DB
:103AE4000CF028FE792120460CF01DFEEDE700BF06
:103AF400C8440100F8440100443D01002DE9F041AF
:103B040084B004469DF828500B9F0D9E9DB94FF03C
:103B1400000847B1CDB91C483B4622461B490CF06E
:103B2400F8F8002813DB06BB45BB20460DF021F84E
:103B340004B0BDE8F0810295019300920B46002287
:103B44000E99FFF7FFFE8046E3E71148E4E7114FC3
:103B54004FF4FD733A46104910480CF0EBFD4FF456
:103B6400FD7138460CF0DFFDDDE70E9B0093434604
:103B740032460C9920460CF0E1FFD5E72A460E990F
:103B840020460CF0CFFFD0E7910B0100010B0100A0
:103B9400A13A0000C844010028450100443D010049
:103BA4002DE9F04387B006460C469046D1F80890BC
:103BB4000F88C7F382174B680878C0F3C20033B18B
:103BC4001149591A41F3CF01002919DA002321467A
:103BD40051F8105BC5F349256288C2F3CB0248193A
:103BE40005B90021CDF8108003920290019100974D
:103BF400002249463046FFF781FF07B0BDE8F08355
:103C0400FFF7F4FC0346E2E76C3A010070B582B0BA
:103C14000446056842F20F738B4228BF0B460E4AD6
:103C2400052168460CF0E7F8064663685B680B22DA
:103C34000A4928460CF055FF63685B6832466946BA
:103C440028460CF04EFF63685B681B220449284633
:103C54000CF047FF02B070BD34450100544501002B
:103C640038450100074B01221A6004E04008054A68
:103C740013685B001360044B9842F7D8034B186039
:103C8400704700BFA81A002040420F00AC1A002061
:103C9400034B01221A70034B034A1A60704700BF9A
:103CA4006E290020D81A0020DC1A0020014B19606C
:103CB40000207047C41A002008B518B9074B002229
:103CC4001A7008BD064B1B7823B141F288300FF0FF
:103CD4004BFCF6E705200CF067FFF2E76E290020A5
:103CE4006F29002038B504460A4B01221A700A4B8A
:103CF4001B782BB938BD651E2046FFF7DDFF2C4627
:103D0400002008F0EBF80028F4D0024B1B78002BBD
:103D1400F1D1EFE76E2900206F290020F8B506469F
:103D24000D4604270DE02A463146002008F03CF8F1
:103D3400044614E03846FFF7D5FFDCB9114B1B7875
:103D4400C3B1114B1B78002BEDD108F0D7F82A46EC
:103D54003146002008F028F8044608F0DBF8002C6F
:103D6400E8D1084B1B78002BE7D0013F3846FFF71A
:103D7400A3FFE2E714B9034B1B7803B92C46204692
:103D8400F8BD00BF6E2900206F29002008B5034B41
:103D940001221A7002480CF0ECFE08BD6F290020C5
:103DA400D445010008B50248FFF730FF08BD00BF45
:103DB400D445010010B50C46044B1868FFF7FAF916
:103DC40003460F2221460248984710BDC41A00201A
:103DD400D445010000B58FB040B1836873B31B684C
:103DE400002B53D098470FB05DF804FB284B0D937C
:103DF40002238DF8043000238DF805308DF8063049
:103E04008DF80730019A0C92194663F3000163F3AD
:103E1400410163F3820163F3C501012262F3881156
:103E2400082262F3522163F3DE4163F3DF710CAACB
:103E34001848FFF717FC6FF01500D4E7164B0793EB
:103E440002238DF8043000238DF805308DF80630F8
:103E54008DF80730019A0692194663F3000163F363
:103E6400410163F3820163F3C501012262F3881106
:103E7400082262F3522163F3DE4163F3DF7106AA81
:103E84000448FFF7EFFB6FF00400ACE70020AAE75B
:103E9400E44501008C3A0100F845010010B58EB0EC
:103EA40068B1034659B152B1806880B3846874B371
:103EB40041F8043B84681846A0470EB010BD284B57
:103EC4000D9302238DF8043000238DF805308DF80E
:103ED40006308DF80730019A0C92194663F30001FD
:103EE40063F3410163F3820163F3C501012262F3C9
:103EF4008811082262F3522163F3DE4163F3DF7118
:103F04000CAA1848FFF7AEFB6FF01500D5E7164B67
:103F1400079302238DF8043000238DF805308DF8C3
:103F240006308DF80730019A0692194663F30001B2
:103F340063F3410163F3820163F3C501012262F378
:103F44008811082262F3522163F3DE4163F3DF71C7
:103F540006AA0448FFF786FB6FF00400ADE700BF34
:103F6400184601008C3A0100F845010010B594B0E0
:103F740080B1134684460068002833D08268002A42
:103F840058D05468002C55D00A46DCF80410A047D9
:103F940014B010BD3B4B139302238DF8043000235F
:103FA4008DF805308DF806308DF80730019A12929D
:103FB400194663F3000163F3410163F3820163F380
:103FC400C501012262F38811082262F3522163F3CE
:103FD400DE4163F3DF7112AA2B48FFF743FB6FF056
:103FE4001500D5E7294B0D9302238DF804300023E7
:103FF4008DF805308DF806308DF80730019A0C9253
:10400400194663F3000163F3410163F3820163F32F
:10401400C501012262F38811082262F3522163F37D
:10402400DE4163F3DF710CAA1748FFF71BFB6FF047
:104034000100ADE7164B079302238DF804300023EB
:104044008DF805308DF806308DF80730019A069208
:10405400194663F3000163F3410163F3820163F3DF
:10406400C501012262F38811082262F3522163F32D
:10407400DE4163F3DF7106AA0348FFF7F3FA6FF03A
:10408400040085E7444601008C3A010058460100CB
:10409400F845010008B502490CF063FE08BD00BFF5
:1040A400844F010030B585B004460D460B4902919A
:1040B400D0F89011019100934FF0FF3300F1E0012B
:1040C400284607F07DFB38B9012385F86430D4F81D
:1040D4008C310BB12846984705B030BDBF0D0100A7
:1040E40008B58446084611461A46DCF8103003F534
:1040F4005D73D3E8AF3F022B07D14AB158B10CF03E
:1041040015FF084B984209D008BD6FF00F00FBE77C
:104114006FF04C00F8E76FF00100F5E76FF00B006B
:10412400F2E700BF2EF8FFFF10B504460022044951
:104134000CF0FCFEA36E1B680BB1E06E984710BD3B
:10414400844F0100F0B583B044680569E369012B2D
:104154001FD0276A05F52876304609F0DDF9606A34
:10416400002300933B464FF480620E4901EB80210B
:10417400304609F0EFF90C4905F5247009F03AF9D5
:1041840014342A46094920460CF031FD20B103B00D
:10419400F0BD276A103FDDE7012120460CF036FD13
:1041A400F5E700BF78390020151001000510010063
:1041B4002DE9F04385B004464668056905F55D7947
:1041C4000123D9E8EF2F002A03D1C9E8E13F0029F0
:1041D400F7D152D105F5D478314640460CF0CAFEE9
:1041E400074650B10023D9E8EF2FC9E8E13F002981
:1041F400F9D1384605B0BDE8F083214BC5F88832C3
:10420400C5F884623168404600F068F90746002822
:10421400E8D12046FFF796FF07460028E2D1194B64
:10422400C5F88C31184BC5F89031B26AD5F84832CC
:10423400D5F8701315480390D5F8F0010290D5F81D
:10424400E8010190CDF80080284600F0A3F8074665
:104254000028C7D105F1E00007F060FCC5F8780339
:10426400002807DB0223D9E8EF2FC9E8E13F002942
:10427400BFD0F8E76FF01507B4E76FF07707B8E73A
:104284004D0C01002D4100004B0F0100390E0100BF
:1042940010B58CB00DF1040C0D4C0FCCACE80F0034
:1042A4000FCCACE80F0094E807008CE8070001ACE1
:1042B4000CAB9C4202D300200CB010BD23680BB1A0
:1042C4002C34F5E70422002160680DF054F8F7E778
:1042D400403B01002DE9F04385B007460E46914668
:1042E400D0F89C80002400E00134012C28D8A8F5E3
:1042F400C071C4EBC40501EB0515C4EBC4031B0179
:104304004033194430460CF0E9FF0028ECD10E4B41
:104314000293D8F810300193CDF800904FF0FF339A
:1043240032463946284607F04BFA48B9012185F848
:104334006410D8F80C30002BD6D028469847D3E721
:1043440005B0BDE8F08300BF5B100100C8B110B533
:1043540084B014460346BAB1E030012902D00020EB
:1043640004B010BD0A4A0292D3F8903101934FF081
:10437400FF33009304F140020146204607F020FA7F
:10438400EEE76FF0150070476FF01500E8E700BF27
:104394005B1001002DE9F04184B00B9D0D9C38B3F6
:1043A4001F4606463DB3BCB1C1B90292039206F55D
:1043B400C0780C9A294640460EF02CFF02AB0193BC
:1043C400CDF800803B4622460A9906F1E00007F04A
:1043D400BBFB04B0BDE8F081084CE5E70023009383
:1043E4003B4622460A9906F1E00007F099FCF0E703
:1043F4006FF01500EDE76FF01500EAE7D942000011
:1044040010B584B00446114A02AB92E8030083E875
:104414000300184607F0B4F808B104B010BD04F165
:10442400340007F08DF80028F7D101AA084909489B
:104434000EF047FA0028F0D1019B9A681AB10C33A8
:10444400C4F8A030E9E70023FAE700BF6C3B0100A1
:10445400AC460100B846010038B504460D46D0F814
:1044640094000CF018FEC4F8D40078B3D4F8940087
:104474000CF011FEC4F8D80058B3D4F8A010C4F856
:10448400B810D4F88C30C4F8A830B4F89420A4F848
:10449400B0200423C4F8AC30D4F8D4C0C4F8A4C009
:1044A400C4F8D010D4F89010C4F8C010A4F8C820F0
:1044B400C4F8C430C4F8BC00A5610223A362064B4F
:1044C400236204F1A403E362002038BD6FF00B0003
:1044D400FBE76FF00B00F8E7C046010010B330B5FE
:1044E40085B00D460446114B43630123C363D0F8E2
:1044F400981001630023029301934FF0FF3300935C
:10450400D0F89C3000F1300240300EF0FFF9204624
:10451400FFF776FF08B105B030BD29462046FFF706
:104524009BFFF8E76FF01500704700BFAC46010031
:1045340008B5064B23B1417800780CF033FA08BD76
:10454400002383F31188BFF36F8FF8E7A9090100F3
:1045540070B505464FF02003EFF3118683F31288FC
:10456400BFF36F8F234808F0CBF828B1214808F037
:10457400E7F8214B1C681DE0204C8E23224620497D
:1045840020480CF0D7F81B491F480CF0D3F88E21B3
:1045940020460CF0C8F8E9E7A2683AB11B4B1B7D32
:1045A40003EB43031A4911F8230090472346246878
:1045B40004B123B12CB1002DEED06268EDE71C46A6
:1045C400F8E70C4808F0ACF820B186F31188BFF383
:1045D4006F8F70BD094CB92322460E4909480CF06F
:1045E400A9F804490C480CF0A5F8B92120460CF0B0
:1045F4009AF8EAE7F41A0020141B00204C3F01004B
:10460400AC3F0100443D0100C43F010034270020B9
:10461400081B00207C3F0100943F010070B50E4B45
:104624001C7D21460D480CF044FD00B970BD6500A9
:1046340004EB44000A4E06EB8000FFF779FF0020EC
:10464400FFF786FF2B19990006EB830300227250B3
:104654005A609A60EAE700BF342700201C1B002040
:10466400081B0020F8B50546504B1C7D4FF0200375
:10467400EFF3118683F31288BFF36F8F4C4808F071
:104684003FF800284AD04A4808F05AF804EB44039B
:10469400484A12F82330002B50D004EB4402464B16
:1046A40003EB820C434F4FEA820E07EB820393E83D
:1046B40007008CE80700002307F80E303C4808F098
:1046C4002FF8002849D086F31188BFF36F8F04EBCD
:1046D4004403394A12F82330002B64D0B5F1FF3F6C
:1046E4004BD109F067F90120FFF732FF2146334827
:1046F4000CF0F7FC324B5BB12F4A04EB440302EBA2
:10470400830304EB4404597812F82400FEF77EF97D
:10471400FFF784FF09F088FE0120F8BD294F8E239E
:104724003A46294929480CF005F8214928480CF053
:1047340001F88E2138460BF0F6FFA4E729462046FF
:1047440000F050F80028B9D004EB44011A4B03EBF5
:10475400810307C883E80700B0E71A4FB9233A4634
:104764001C491A480BF0E6FF11491B480BF0E2FF05
:10477400B92138460BF0D7FFA5E704EB44020E4BF2
:1047840003EB82039868410CC003144BC018144A0D
:104794004FF0000341F10001FBF7DAFC0121281A74
:1047A4000AF0CAFC9DE70020B7E700BF34270020C9
:1047B400F81A0020FC1A0020081B00201C1B0020F3
:1047C400112A00004C3F0100AC3F0100443D0100B0
:1047D400C43F01007C3F0100943F01003F420F00B1
:1047E40040420F002DE9F04182B00E4601A900F0CD
:1047F40045F8441E24B207E0B6F1FF3F33D08044AD
:10480400B04530D9013C24B2002C2BDB019B04EBD6
:10481400440203EB8205697813F822000CF070FC63
:104824000028EFD16868410CC003114FC019114A28
:104834004FF0000341F10001FBF78AFC8046AB68AE
:10484400590CDB03D8190B4A4FF0000341F1000166
:10485400FBF77EFC084B1B68B3F1FF3FCCD08342CF
:10486400CAD8CFE70025284602B0BDE8F08100BFD2
:104874003F420F0040420F004C00002008B9024B99
:104884000B600020704700BFE846010008B50248ED
:104894000BF0F6F808BD00BFE846010008B308B500
:1048A4004368042B07D0082B12D0FBB1006808F032
:1048B4007BFA002014E003680022D3E8EF1F0129EB
:1048C40003D1C3E8E02F0028F7D10DD1104607E04B
:1048D40003681B7803F580730020054A42F823001F
:1048E40008BD6FF4E04070470248F9E70248F7E773
:1048F40000000350E98FFFFFEA8FFFFF70B308B594
:104904004368042B04D0082B0FD0C3B915480BE01F
:1049140003680122D3E8EF1F002903D1C3E8E02F85
:104924000028F7D116D1002008BD03681B7803F5D1
:1049340080730D4A52F8233073B90020F4E70068FD
:104944004FF0FF324FF0FF3308F01AF90028EBD094
:104954000648E9E70548E7E70448E5E76FF4E0407F
:10496400704700BFEA8FFFFF00000350E98FFFFF8D
:1049740010B5044688B16368042B0DD0082B0BD006
:1049840053B113F0020F0DD02146094807F030FE51
:10499400002323600023636010BD064B5B68064858
:1049A4009847E8E71422002120680CF0E4FCF1E7C2
:1049B40020200020DC010020F046010010B5044650
:1049C40078B16368042B0BD0082B09D00BB923688A
:1049D40063B120680EF00CFD636843F0010363606B
:1049E40010BD0F4B5B680F489847EAE74FF0FF3262
:1049F4004FF0FF3321460C4807F084FD08B92368C3
:104A04001BB9074B5B6809489847142200212068AA
:104A14000CF0B1FC636843F002036360D9E700BFA4
:104A2400DC010020F046010020200020184701008E
:104A340008B540231422044904480EF08BFC0449B1
:104A440004480BF07FF808BD201B00202020002024
:104A5400484701005C470100014910220A60704781
:104A640010ED00E072B6404080F31188BFF36F8F01
:104A7400BFF34F8F30BF62B6BFF36F8F704700BF75
:104A840072B6494081F3118820BF80F3118862B661
:104A9400704700BF2DE9F04182B000AF0446D0F862
:104AA40000E0D0F804C086686D468AB06B4613F106
:104AB400100200F0F38014218AB10846042903DDB2
:104AC400DFF80882C3F81480082801DDC3F818E071
:104AD4000C2801DDC3F81CC0102800DD1E62132958
:104AE40040F3DF804FF0140C3AB1052139710021F5
:104AF4007971B971F9717868186100216FF3000157
:104B04006FF341016FF382016FF3C501012363F376
:104B140088110CF47D7C6CF352216FF3DE416FF34A
:104B2400DF7100236A48FEF79DFDAD46D4F80CE022
:104B3400D4F810C066696D468AB06B4613F1100252
:104B440000F0B28014218AB10846042903DDDFF89D
:104B54008481C3F81480082801DDC3F818E00C2808
:104B640001DDC3F81CC0102800DD1E62132940F3C8
:104B74009E804FF0140C3AB10521397100217971EE
:104B8400B971F9717868186100216FF300016FF34E
:104B940041016FF382016FF3C501012363F38811AF
:104BA4000CF47D7C6CF352216FF3DE416FF3DF7103
:104BB40000234748FEF756FDAD46E6696D4688B0CA
:104BC4006B4613F1100275D00C214AB10846042932
:104BD40003DDDFF804C1C3F814C0082800DD9E61BA
:104BE4000B296ADD4FF00C0C3AB103213971002115
:104BF4007971B971F9717868186100216FF3000156
:104C04006FF341016FF382016FF3C501012363F375
:104C140088110CF47B7C6CF352216FF3DE416FF34B
:104C2400DF7100232A48FEF71DFDAD46A46988B054
:104C34006B4613F1100243D00C213AB10846042903
:104C440001DD264D5D61082800DD9C610B293ADDFC
:104C54000C243AB10321397100217971B971F971C8
:104C64007868186100216FF300016FF341016FF35D
:104C740082016FF3C501012363F3881104F47B748B
:104C840064F352216FF3DE416FF3DF7100231048A8
:104C9400FEF7E8FC0837BD46BDE8F0816FF000413F
:104CA4000AE76FF01B0C1FE76FF000414BE76FF052
:104CB4001B0C60E76FF0004187E76FF01B0C93E774
:104CC4006FF00041B9E76FF01B04C2E76C470100C5
:104CD400AC3A01009C470100CC470100DC470100CD
:104CE400002807DB00F01F02400901239340024A19
:104CF40042F82030704700BF00E100E000280CDBE0
:104D040000F01F024009012393402030034A42F877
:104D14002030BFF34F8FBFF36F8F704700E100E087
:104D2400002808DB4901C9B200F1604000F5614088
:104D340080F80013704700F00F004901C9B2014B1D
:104D44001954704714ED00E04209054B53F8222032
:104D540000F01F00012303FA00F01040704700BF69
:104D640000E100E0F8B504464E1C072E04D8314695
:104D740060B2FFF7D5FFF8BD0D46094F5B233A46F5
:104D8400084909480BF0D6FC072322462946074860
:104D94000BF0D0FC5B2138460BF0C5FCE7E700BF05
:104DA4000C48010044480100443D010060480100F2
:104DB40030BFFFF7FDBF00BF08B50B4B0B4A22F015
:104DC4007F029A60BFF34F8FBFF36F8FD3F88820B1
:104DD40022F47002C3F8882007F0C2FA09F0BEFF7B
:104DE40001F006F807F018FB00ED00E000000000F9
:104DF4000A4A9368C3F8A80009490968C3F8AC10C3
:104E040008494B6843F080534B60002383F31188B7
:104E1400BFF36F8F9368D3F8AC007047342700203A
:104E24002464010000ED00E014498A684FF030006A
:104E34001044EFF3098C80E8F01F202080F31288DF
:104E4400BFF36F8F0E4F4FF00066CA698A603E60F1
:104E5400D2F8A8000023C2F8A83080F3118802F128
:104E6400300090E8F01F8CF3098802F1000004B5CB
:104E74000CF071F9BDE804407047000034270020AD
:104E840004ED00E01EF0040F0CBFEFF30880EFF315
:104E94000980816911F8021C0229FFD001B50CF0C8
:104EA4003EF901BD10B4A2F120040E4942F8081CD9
:104EB40021F0010142F8081C42F8203C019B42F811
:104EC4001C3C029B42F8183C039B42F8143C4FF0F4
:104ED400807342F8043C04650023C0F8A83010BC79
:104EE400704700BF53FF0000094B9860D0F898301A
:104EF40083F30B88104681F30988002163B681F39C
:104F04001188BFF36F8F002200230BF020F800BF3D
:104F14003427002001B572B60B4A906900281EBFE1
:104F2400002191610EF048FA62B6EFF30580A0F11A
:104F340010004FEAC0000549014409C99847BDE87B
:104F4400014003490847000034270020F4370100DA
:104F5400594F0000044B9968D869884203D003492B
:104F64004FF080520A6070473427002004ED00E0BF
:104F740010B588B000241C7002F07F44B4F17F4F58
:104F840034D102F00C04082C05D012F0080F2AD0FA
:104F9400084608B010BD164B079302238DF8043061
:104FA40000248DF805408DF806408DF80740019BDC
:104FB4000693214664F3000164F3410164F3820122
:104FC40064F3C501012363F38811082363F35221B9
:104FD40064F3DE4164F3DF71234606AA0548FEF755
:104FE40041FB2046D5E701221A70D2E70020D0E722
:104FF400A0480100AC3A01002DE9F041A6B000AF91
:1050040005460E461446BC4BFB6102233B7100234C
:105014007B71BB71FB717A68BA61194663F3000155
:1050240063F3410163F3820163F3C501012262F377
:105034008811082262F3522163F3DE4163F3DF71C6
:1050440007F11802AD48FEF70DFBAD4B9B6A13F058
:10505400100F3ED1AA4B9B6A13F0080F5CD1A84BEA
:105064009B6A13F0020F7AD1A54B9B6A13F0010FD0
:1050740040F0E980A24B9B6A13F0200F40F00681B8
:105084009F4B9B6A13F0100F04D19D4B9B6A13F046
:10509400020F05D09A4B9B6A13F0100F40F01B814E
:1050A400974B9B6A13F0200F04D0954A536A23F45C
:1050B40000535362924A936A43F0FF0393620121BF
:1050C40028460CF04DF8207000209837BD46BDE806
:1050D400F0818C4B7B6302233B7100237B71BB719A
:1050E400FB717A683A63194663F3000163F3410183
:1050F40063F3820163F3C501012262F3881108227C
:1051040062F3522163F3DE4163F3DF7107F130028E
:105114007A48FEF7A7FA9DE77B4BFB6402233B71B9
:1051240000237B71BB71FB717A68BA64194663F31F
:10513400000163F3410163F3820163F3C5010122BA
:1051440062F38811082262F3522163F3DE4163F3B0
:10515400DF7107F148026948FEF784FA7FE76B4B79
:105164007B6602233B7100237B71BB71FB717A6800
:105174003A66194663F3000163F3410163F3820164
:1051840063F3C501012262F38811082262F35221FC
:1051940063F3DE4163F3DF7107F160025748FEF702
:1051A40061FA574B586B9B6A13F0800F3FF45CAF66
:1051B400E84688B06B4613F1100211D00C2152B1AD
:1051C4008C46042903DDDFF848E1C3F814E0BCF1A0
:1051D400080F08DD98610B2932DD4FF00C0C04E058
:1051E4006FF00041EBE76FF01B0C3AB1032139710A
:1051F40000217971B971F9717868186100216FF330
:1052040000016FF341016FF382016FF3C5010123C4
:1052140063F388110CF47B7363F352216FF3DE4163
:105224006FF3DF7100233548FEF71CFAC546002EE4
:105234003FF41AAF324A936A23F08003936213E770
:105244006FF01B0CD1E7334BFB6702233B71002348
:105254007B71BB71FB717A68BA67194663F300010D
:1052640063F3410163F3820163F3C501012262F335
:105274008811082262F3522163F3DE4163F3DF7184
:1052840007F178021D48FEF7EDF9F3E6224BC7F863
:10529400943002233B7100237B71BB71FB717A68EC
:1052A400C7F89020194663F3000163F3410163F3E7
:1052B400820163F3C501012262F38811082262F3BB
:1052C400522163F3DE4163F3DF7107F190020B486F
:1052D400FEF7C8F9D4E6114E40F25913324610498C
:1052E40010480BF027FA10480BF024FA40F2591139
:1052F40030460BF018FAD3E6CC480100AC3A010072
:1053040000ED00E0E4480100184901002C490100C7
:10531400444901005C4901007C490100AC49010099
:10532400E8490100443D0100344A01002DE9F041FF
:10533400ACB000AF05460E461446BC4BFB610223DD
:105344003B7100237B71BB71FB717A68BA611946AA
:1053540063F3000163F3410163F3820163F3C50165
:10536400012262F38811082262F3522163F3DE41C1
:1053740063F3DF7107F11802AD48FEF773F9AD4B23
:105384009B6A13F4805F2AD1AA4B9B6A13F4006FC3
:1053940048D1A84B9B6A13F4007F66D1A54B9B6A46
:1053A40013F4806F40F0D580A24B9B6A13F4807F86
:1053B40040F0F2809F4B9B6A13F4005F40F0118130
:1053C4009C4A936A43F47F439362012128460BF07D
:1053D400C7FE20700020B037BD46BDE8F081964B73
:1053E4007B6302233B7100237B71BB71FB717A6881
:1053F4003A63194663F3000163F3410163F38201E5
:1054040063F3C501012262F38811082262F3522179
:1054140063F3DE4163F3DF7107F130028448FEF782
:1054240021F9B1E7854BFB6402233B7100237B71B7
:10543400BB71FB717A68BA64194663F3000163F3C4
:10544400410163F3820163F3C501012262F3881110
:10545400082262F3522163F3DE4163F3DF7107F143
:1054640048027348FEF7FEF893E7754B7B66022308
:105474003B7100237B71BB71FB717A683A661946F4
:1054840063F3000163F3410163F3820163F3C50134
:10549400012262F38811082262F3522163F3DE4190
:1054A40063F3DF7107F160026148FEF7DBF8614BDB
:1054B400986B9B6A13F4004F3FF470AFE84688B0D2
:1054C4006B4613F1100211D00C2152B18C46042901
:1054D40003DDDFF870E1C3F814E0BCF1080F08DD68
:1054E40098610B2932DD4FF00C0C04E06FF00041A1
:1054F400EBE76FF01B0C3AB103213971002179718C
:10550400B971F9717868186100216FF300016FF3C4
:1055140041016FF382016FF3C501012363F3881125
:105524000CF47B7363F352216FF3DE416FF3DF718D
:1055340000233F48FEF796F8C546002E3FF42EAFF1
:105544003C4A936A23F40043936227E76FF01B0CF1
:10555400D1E73D4BFB6702233B7100237B71BB7199
:10556400FB717A68BA67194663F3000163F341017A
:1055740063F3820163F3C501012262F388110822F7
:1055840062F3522163F3DE4163F3DF7107F17802C2
:105594002748FEF767F807E72C4BC7F8AC3002231F
:1055A4003B7100237B71BB71FB717A68C7F8A8203B
:1055B400194663F3000163F3410163F3820163F36A
:1055C400C501012262F38811082262F3522163F3B8
:1055D400DE4163F3DF7107F1A8021548FEF742F8D4
:1055E400EEE61B4BC7F8943002233B7100237B711A
:1055F400BB71FB717A68C7F89020194663F3000108
:1056040063F3410163F3820163F3C501012262F391
:105614008811082262F3522163F3DE4163F3DF71E0
:1056240007F190020248FEF71DF8C9E6984A010006
:10563400AC3A010000ED00E0B04A01001849010055
:10564400C44A0100E04A0100F84A0100144B010079
:105654007C49010010B5B2B0AF4B079302238DF81B
:10566400043000238DF805308DF806308DF80730AE
:10567400019A0692194663F3000163F3410163F34F
:10568400820163F3C501012262F38811082262F3E7
:10569400522163F3DE4163F3DF7106AA9F48FDF7ED
:1056A400E1FF9F4B9B6A13F0007F2BD19C4B9B6ABD
:1056B40013F0807F4CD19A4B9C6A14F480146DD102
:1056C400974B9B6A13F4002F40F08E80944B9B6A97
:1056D40013F4802F40F0AE80914B9B6A13F4003F8B
:1056E40040F0CE808E4B9B6A13F4803F40F0EE80F6
:1056F4008B4A936A6FEA03436FEA1343936220462B
:1057040032B010BD874B0D9302238DF80430002373
:105714008DF805308DF806308DF80730019A0C921B
:10572400194663F3000163F3410163F3820163F3F8
:10573400C501012262F38811082262F3522163F346
:10574400DE4163F3DF710CAA7448FDF78BFFADE70C
:10575400754B139302238DF8043000238DF8053024
:105764008DF806308DF80730019A1292194663F3CA
:10577400000163F3410163F3820163F3C501012274
:1057840062F38811082262F3522163F3DE4163F36A
:10579400DF7112AA6148FDF765FF8CE7634B19932B
:1057A40002248DF8044000238DF805308DF806306E
:1057B4008DF80730019A1892194663F3000163F3D8
:1057C400410163F3820163F3C501012262F388118D
:1057D400082262F3522163F3DE4163F3DF7118AAF6
:1057E4004E48FDF73FFF6BE7514B1F9302238DF8A3
:1057F400043000238DF805308DF806308DF807301D
:10580400019A1E92194663F3000163F3410163F3A5
:10581400820163F3C501012262F38811082262F355
:10582400522163F3DE4163F3DF711EAA3B48FDF7A7
:1058340019FF4BE73F4B259302238DF804300023D7
:105844008DF805308DF806308DF80730019A2492D2
:10585400194663F3000163F3410163F3820163F3C7
:10586400C501012262F38811082262F3522163F315
:10587400DE4163F3DF7124AA2848FDF7F3FE2BE72A
:105884002D4B2B9302238DF8043000238DF8053023
:105894008DF806308DF80730019A2A92194663F381
:1058A400000163F3410163F3820163F3C501012243
:1058B40062F38811082262F3522163F3DE4163F339
:1058C400DF712AAA1548FDF7CDFE0BE71B4B319378
:1058D40002238DF8043000238DF805308DF806304E
:1058E4008DF80730019A3092194663F3000163F38F
:1058F400410163F3820163F3C501012262F388115C
:10590400082262F3522163F3DE4163F3DF7130AAAC
:105914000248FDF7A7FEEBE62C4B0100AC3A010070
:1059240000ED00E0444B0100584B0100744B0100B2
:10593400A04B0100C04B0100E84B0100044C0100E6
:10594400F0B59BB000AF06460D46984BFB610223B1
:105954003B7100247C71BC71FC717B68BB61214686
:1059640064F3000164F3410164F3820164F3C5014B
:10597400012363F38811082363F3522164F3DE41A6
:1059840064F3DF71234607F118028948FDF76AFEC4
:105994002C70884BDC6A14F0020449D1854BDB6A15
:1059A400002B6CDB834BDC6A14F0804400F0EC8049
:1059B400814B7B6302233B7100237B71BB71FB71C1
:1059C4007A683A63194663F3000163F3410163F3B0
:1059D400820163F3C501012262F38811082262F394
:1059E400522163F3DE4163F3DF7107F13002704843
:1059F400FDF738FEB36933F8022C4DF602739A4270
:105A040060D06C4B9B6A13F0FF0F40F09E80694B93
:105A14009C6A14F47F4440F09F80664B9B6AB3F504
:105A2400803FC0F0A0803046FFF714FE044622E019
:105A3400624B7B6602233B7100247C71BC71FC7158
:105A44007B683B66214664F3000164F3410164F31F
:105A5400820164F3C501012363F38811082363F30E
:105A6400522164F3DE4164F3DF71234607F16002DF
:105A74004F48FDF7F7FD20466C37BD46F0BD504B4F
:105A8400FB6402233B7100237B71BB71FB717A6859
:105A9400BA64194663F3000163F3410163F38201BD
:105AA40063F3C501012262F38811082262F35221D3
:105AB40063F3DE4163F3DF7107F148023C48FDF70D
:105AC400D1FDD8E734686D4688B06B4613F11002F7
:105AD4000FD00C214AB10846042903DDDFF8E4C0E5
